:020000040800F2
:10000000101E0020990100089B100008370F0008FF
:100010009910000839020008B11200080000000021
:1000200000000000000000000000000001010008C6
:100030003B02000800000000450100089D10000878
:10004000B3010008B3010008B3010008B3010008C0
:10005000B3010008B3010008B30100083D02000825
:10006000B3010008B3010008B3010008B3010008A0
:10007000B3010008B3010008B3010008B301000890
:10008000B3010008B3010008B3010008B301000880
:10009000B3010008B3010008B3010008B301000870
:1000A000B3010008B3010008B3010008B301000860
:1000B000B30100081D110008B3010008B3010008D6
:1000C000B3010008B3010008B3010008B301000840
:1000D000B3010008B3010008B3010008B301000830
:1000E000B3010008B3010008B3010008DFF80CD029
:1000F00000F090F80048004743130008101E00204D
:10010000224B19680868B0E8F00F80F30988BFF344
:100110006F8F4FF0000080F311884EF00D0E704786
:100120000000000006480068006880F3088862B696
:1001300061B6BFF34F8FBFF36F8F00DF00BF00BF0B
:1001400008ED00E0EFF30980BFF36F8F0F4B1A68E3
:1001500020E9F00F106008B54FF0500080F31188CF
:10016000BFF34F8FBFF36F8F02F078F84FF00000AE
:1001700080F31188BDE8084019680868B0E8F00FFE
:1001800080F30988BFF36F8F704700BF1C00002009
:10019000EFF3058070470000064880470648004797
:1001A000FEE7FEE7FEE7FEE7FEE7FEE7FEE7FEE727
:1001B000FEE7FEE719110008ED00000840EA010320
:1001C0009B0703D009E008C9121F08C0042AFAD20D
:1001D00003E011F8013B00F8013B521EF9D27047D1
:1001E000D2B201E000F8012B491EFBD27047002279
:1001F000F6E710B513460A4604461946FFF7F0FF26
:10020000204610BD421C10F8011B0029FBD1801AAA
:1002100070470000064C074D06E0E06840F001031F
:1002200094E8070098471034AC42F6D3FFF762FF1A
:100230008C2F0008AC2F0008FEE77047022000F06A
:1002400049B872B6FEE7000038B50020009019A149
:100250001C4801F02FF81B48FFF7D4FF82B21E2381
:100260001849194800F00EFE184C6946606802F003
:1002700041FA6946606802F03DFA6946606802F03A
:1002800039FA6946606802F035FA6946606802F03A
:1002900031FA6946606802F02DFA6068002807D0DC
:1002A0000B494FF080500860BFF34F8FBFF36F8F43
:1002B00038BD0000427574746F6E20707265737380
:1002C00065640A0094000020B400002000000020B3
:1002D00004ED00E0024910B50860FFF7B5FF10BD5E
:1002E000140401402DE9F84FDFF8B891002409F11A
:1002F000040A0AF1040B23460F270BF1040EC9E090
:100300000125A5402A40AA427DD1674ED1F804C0FC
:10031000ACEB0608B44532D014DCBCF1030F3AD084
:1003200009DCBCF1000F2AD0BCF1010F1CD0BCF1DC
:10033000020F31D11DE0BCF1110F17D0BCF1120F2B
:100340002AD119E0B8F5881F19D006DCB8F5803F2E
:1003500015D0B8F5801F1FD111E0B8F5001F0ED0E1
:10036000B8F5041F18D10AE0CB6815E0CB681B1D57
:1003700012E0CB6808330FE0CB680C330CE08B68DD
:100380002BB1012B4FF0080303D0456104E0042397
:1003900002E0056100E00023FF2A01D8064601E0E3
:1003A00000F104064FEA840501D9A5F12005D6F82D
:1003B000008007FA05FC28EA0C0803FA05F548EA6C
:1003C0000508C6F800804D68ED0062D5374DAE696E
:1003D00046F00106AE61AD6924F0030605F00105A3
:1003E0000095334D06EB050CDCF80850A607360FD8
:1003F00007FA06F825EA0805DFF8B880404503D17A
:100400004FF0000817E044E0DFF8AC80404502D12F
:100410004FF001080FE0DFF8A480404502D14FF013
:10042000020808E0DFF89880404502D14FF0030849
:1004300001E04FF0040808FA06F848EA0508CCF88D
:1004400008804D68D9F80060ED034D4601D516438C
:1004500000E096432E604D68DAF80060AD03554623
:1004600001D5164300E096432E604D68DBF800602E
:10047000ED025D4601D5164300E096432E604D68BF
:10048000DEF80060AD02754601D5164300E09643E4
:100490002E60641C0D682A46E5407FF431AFBDE84C
:1004A000F88F00000004014000001110001002400D
:1004B0000000014000080140000C01400010014014
:1004C0000014014001488068704700000C000020C3
:1004D0000248816802781144816070470C00002056
:1004E000074810B5016841F010010160032000F0D9
:1004F00095F8002000F006F800F03EF8002010BD4E
:100500000020024000B5014687B000221D2000F007
:1005100065F81D2000F054F81348C16941F002014C
:10052000C161C06905A900F002000690684600F0AC
:100530001DF900F03BF90D490D4AB0FBF1F10D48F2
:10054000491E0260416040F2E7320021C0E9032108
:10055000816000F013FB10B1012007B000BD054819
:1005600000F03AFBF9E700000010024040420F00A3
:1005700000040040F40000200F4808B5816941F0F4
:1005800001018161816901F001010091C16941F0BE
:100590008051C161C069002200F0805000900F219D
:1005A000901E00F01BF80548416821F0E06141F021
:1005B0000071416008BD00000010024000000140D1
:1005C000002809DB00F01F02012191404009800052
:1005D00000F1E020C0F8001170470000F0B40E4BAD
:1005E0001B680C46C3F30223C3F10705042D00D991
:1005F0000425191D072901D2002300E0DB1E012676
:1006000006FA05F1491E214099409E40761E16408B
:100610003143F0BC00F060BE0CED00E0064900F094
:10062000070208684FF6FF03184040EA0220034A19
:1006300010430860704700000CED00E00000FA0570
:100640002DE9F0470F46050061D0434E306800F0B9
:100650000700B84209D2306820F007003843306004
:10066000306800F00700B84251D128683B4C810740
:1006700012D5400703D5606840F4E06060602878D8
:10068000000703D5606840F4605060606068A96846
:1006900020F0F000084360602878C00728D0686820
:1006A000012810D02168022810D0890700292EDAED
:1006B000616821F0030101436160FFF703FF804699
:1006C00041F288390DE021688903EFE78901EDE700
:1006D000FFF7F8FEA0EB0801494502D90320BDE869
:1006E000F0876068696800F00C00B0EB810FEFD113
:1006F000306800F00700B8420BD9306820F00700DE
:1007000038433060306800F00700B84201D0012063
:10071000E5E72878400705D56068E96820F4E060DF
:10072000084360602878000706D56068296920F4CE
:10073000605040EAC100606000F058F86168084A03
:10074000C1F30311515CC8400649086006480068BF
:10075000FFF7D8FE0020C2E7002002400010024050
:100760006C2F000818000020100000200F220260EB
:100770000C4A536803F003034360536803F0F0032B
:100780008360536803F4E063C36052684FF4E0632E
:1007900003EAD20202610448006800F00700086022
:1007A0007047000000100240002002400448054944
:1007B00000684968044AC1F30221515CC84070478F
:1007C00018000020001002407C2F00080448054952
:1007D00000684968044AC1F3C221515CC8407047AF
:1007E00018000020001002407C2F000812A185B0E4
:1007F0000FC98DE80F0014A0144A006804905168D6
:10080000134801F00C03042B10D0082B0ED1C1F3B8
:100810008343C9031DF803000AD5516804AAC1F334
:100820004041515C0A4A5043B0FBF1F005B07047BB
:1008300008494843FAE700000203040506070809CF
:100840000A0B0C0D0E0F10100102000000100240E8
:1008500000127A0000093D002DE9F84F040070D025
:100860002078C04DC00749D06868C0F381000128D6
:1008700007D06868C0F38100022809D16868C00306
:1008800006D52868800339D560680028E7D035E0B0
:100890006068B0F5803F0BD010B1B0F5A02F11D03B
:1008A000286820F480302860286820F4802002E046
:1008B000286840F480302860606890B1FFF702FE3D
:1008C00006460AE0286840F480202860F0E700BF70
:1008D000FFF7F8FD801B642873D828688003F7D5DC
:1008E0000CE0FFF7EFFD064605E000BFFFF7EAFD6D
:1008F000801B6428F0D828688003F7D420789A4EAB
:1009000080074FF001094FF0000839D5686810F0F2
:100910000C0F07D06868C0F38100022809D168680D
:10092000C00306D42868800714D52069012808D19F
:1009300010E02069B0B1C6F80090FFF7C3FD07468C
:1009400005E00AE1FFF7BEFDC01B0228C4D82868F5
:100950008007F7D52868616920F0F80040EAC100F7
:1009600028600DE0C6F80080FFF7ACFD074604E004
:10097000FFF7A8FDC01B022823D828688007F7D4FA
:10098000207800072CD57948A169D9B1C0F800902A
:10099000FFF798FD074604E0FFF794FDC01B02280F
:1009A0000FD8686A8007F7D571484FF4FA5100688C
:1009B000B0FBF1F0009000BF0098411E0091FAD208
:1009C0000EE080E0C0F80080FFF77CFD074604E001
:1009D000FFF778FDC01B022875D8686A8007F7D436
:1009E0002078400760D5E8690027C00008D4E8698E
:1009F00040F08050E861E869012700F080500090E5
:100A00005C480168C90513D40168834641F48071CC
:100A10000160FFF757FD824606E000BFFFF752FD79
:100A2000A0EB0A0064284ED8DBF80000C005F5D51D
:100A3000E06801280AD008B1052813D0286A20F000
:100A400001002862286A20F0040002E0286A40F0D1
:100A500001002862E06841F2883B98B1FFF732FD5F
:100A600082460BE0286A40F004002862EEE700BFEF
:100A7000FFF728FDA0EB0A0159455AD8286A8007DC
:100A8000F6D50CE0FFF71EFD824605E0FFF71AFDE4
:100A9000A0EB0A0159454CD8286A8007F6D41FB14B
:100AA000E86920F08050E861E06988B36968C1F3C3
:100AB0008101022944D00228C6F8608004D0FFF7E3
:100AC00001FD044638E034E0FFF7FCFC074604E093
:100AD000FFF7F8FCC01B02282BD828688001F7D448
:100AE000206AB0F5803F05D16868A16820F4003025
:100AF00008436860D4E908010843696821F4741167
:100B000008436860C6F86090FFF7DCFC044606E026
:100B100025E000BFFFF7D6FC001B022809D8286893
:100B20008001F7D51BE000BFFFF7CCFC001B0228BB
:100B300002D90320BDE8F88F28688001F4D40EE0C4
:100B40000128F7D06868226A00F48031914204D10C
:100B5000616A00F47010884201D00120EAE70020A9
:100B6000E8E70000001002400000424280044242D8
:100B700018000020007000407047704710B5040056
:100B800003D094F83D0010B107E0012010BD002013
:100B900084F83C00204600F01EF8022084F83D0056
:100BA000211D206800F0C0FA012084F8460084F876
:100BB0003E0084F83F0084F8400084F8410084F847
:100BC000420084F8430084F8440084F8450084F827
:100BD0003D00002010BD704790F83D10012901D064
:100BE00001207047022180F83D100168CA6842F078
:100BF0000102CA6000680B49884208D0B0F1804FFA
:100C000005D00949884202D00849884204D1816848
:100C100001F00701062903D0016841F001010160DC
:100C200000207047002C01400004004000080040F4
:100C3000704770B50446006801694FF00005C9436C
:100C4000890715D4C168C943890711D4E91E016118
:100C500001202077206880698007204602D0FFF7B6
:100C6000E7FF04E000F098F8204600F096F82577BA
:100C700020680169C943490717D4C168C9434907B6
:100C800013D46FF00401016102202077206880698D
:100C900010F4407F204602D0FFF7CAFF04E000F0C6
:100CA0007BF8204600F079F8257720680169C94370
:100CB000090716D4C168C943090712D46FF00801A7
:100CC0000161042020772068C0698007204602D097
:100CD000FFF7AEFF04E000F05FF8204600F05DF89B
:100CE000257720680169C943C90617D4C168C9437B
:100CF000C90613D46FF01001016108202077206825
:100D0000C06910F4407F204602D0FFF791FF04E055
:100D100000F042F8204600F040F82577206801698D
:100D2000C943C90708D1C168C943C90704D1891E8D
:100D30000161204600F032F820680169C9430906C4
:100D400009D4C168C943090605D46FF08001016167
:100D50002046FFF711FF20680169C943490609D4FD
:100D6000C168C943490605D46FF0400101612046BE
:100D700000F01EF820680169C94389060BD4C168D8
:100D8000C943890607D46FF0200101612046BDE800
:100D90007040FFF7F2BE70BD7047704700680349AE
:100DA000884201D1FFF794BB704700000004004067
:100DB000704770B5040004D094F83900002510B1D4
:100DC00006E0012070BD84F83850204600F022F87B
:100DD000242084F839002068C16821F40051C160E2
:100DE000204600F0D7F92068016921F490410161A3
:100DF0002068416921F02A0141612068C16841F4FD
:100E00000051C160E563202084F8390084F83A007D
:100E1000002070BD30B585B0002400940194029488
:100E2000039400681449884223D11448C16941F4ED
:100E30000031C161C16901F400310491816941F05F
:100E40000401816180690E4D00F0040004900420CB
:100E50000090022001900320039069462846FFF786
:100E600041FA0820CDE90004694628460294FFF7BC
:100E700039FA05B030BD00000044004000100240C7
:100E8000000801402DE9F843044690F839001F4658
:100E900016460D4620284CD1C5B1BEB194F8380095
:100EA000012846D0012084F838004FF00008C4F82B
:100EB0003C80212084F83900FFF704FBA68481469A
:100EC000E684A068B0F5805F03D004E00120BDE8AF
:100ED000F883206928B12E465FF0000584F8388039
:100EE0000EE00026FAE78021204600F0AFF9A0B915
:100EF000AEB116F8010B21684860E08C401EE0841A
:100F0000E08C4B464FF0000200970028EBD14FF0E9
:100F10004001204600F09AF930B10320D7E735F8B8
:100F2000020BC0F30800E6E7202084F83900002017
:100F3000CDE70220CBE7FEE71CB51E2311220EA150
:100F40001148FFF79FFF00210A2001F00DFA0F4C16
:100F5000002860600FD00E4A00210E4800F056FABB
:100F6000A06021461620CDE90001002380220AA1BD
:100F70000B4801F09FFD1CBD0A5374617274207010
:100F8000726F6772616D0A00B400002000000020DB
:100F9000482F00082D2000085461736B5F32000059
:100FA000791F000830B585B00020029003902748D3
:100FB000816941F010018161816901F010010491A2
:100FC000816941F020018161816901F02001049172
:100FD000816941F004018161816901F0040104919A
:100FE000816941F0080181618069032400F00800F3
:100FF00004904FF40050CDE9000469461448FFF70F
:1010000071F949F6F170CDE90004124D69462846A0
:10101000FFF768F9022000900F480190012002902C
:1010200069462846FFF75EF94FF6FF70CDE90004E8
:1010300069460A48FFF756F9002205210720FFF705
:10104000CDFA0720FFF7BCFA05B030BD0010024012
:10105000001001400008014000002110000C014078
:101060000C4810B50A4901604FF4E131416000219C
:1010700081600C22C160C0E904128161C161FFF787
:1010800098FE002803D0BDE81040FFF7DAB810BD85
:1010900000440040B4000020FEE7FEE710B55020F9
:1010A00080F31188BFF34F8FBFF36F8F01F06EFD98
:1010B00018B104494FF080500860002080F3118877
:1010C00010BD000004ED00E010B590B02821684686
:1010D000FFF78DF814210AA8FFF789F80220009085
:1010E0000120049010200024059007946846FFF723
:1010F000B3FB08B172B6FEE70F20CDE90A040C94E9
:101100000D9400210AA80E94FFF79AFA002801D046
:1011100072B6FEE710B010BD704700000148FFF73F
:1011200088BD0000F4000020F0B50268164B174C93
:10113000174D4FF08047984205D0B84203D0A042E7
:1011400001D0A84203D122F070064A683243984287
:1011500005D0B84203D0A04201D0A84203D122F466
:101160004074CA6822434C6922F080022243026024
:101170008A68C2620A688262984201D10969016381
:1011800001214161F0BD0000002C0140000400403D
:101190000008004070B5044600680169E26821F467
:1011A0004051114301612169A06808436169084306
:1011B0002168CA6841F20C639A430243CA602068FE
:1011C0004169A26921F44071114341611E492068BF
:1011D000884202D1FFF7FAFA01E0FFF7E7FA00EBE5
:1011E000C00101EB0012606864218000B2FBF0F3E3
:1011F000B3FBF1F36FF018067343B2FBF0F5B2FBEB
:10120000F0F605EB8305322303EB0515B5FBF1F58D
:10121000B6FBF1F605F0F00505EB0615B2FBF0F6AE
:10122000B2FBF0F0B0FBF1F06FF01802504306EBA8
:10123000800003EB0010B0FBF1F0216800F00F001C
:101240002844886070BD0000003801402DE9F0415D
:10125000984617460E460446069D1DE0681C1BD0A6
:101260002DB1FFF72FF9A0EB0800A84214D9206890
:10127000C16821F4D071C1602068416921F0010189
:101280004161202084F8390084F83A00002084F875
:1012900038000320BDE8F0812068006836EA0000CD
:1012A00004D00020B842D9D00020F3E70120F9E7AC
:1012B000FEE700000FB4084610B5064A02A900F088
:1012C0002AF8044602A9002000F036F8204610BC97
:1012D0005DF814FB391300080907090E002804DB28
:1012E00000F1E02080F80014704700F00F0000F1DA
:1012F000E02080F8141D704702E008C8121F08C1E2
:10130000002AFAD170477047002001E001C1121F86
:10131000002AFBD170472DE9F04116460F460446DE
:10132000002503E03946B047641C6D1C2078002876
:10133000F8D12846BDE8F0810A68531C0B60107094
:101340007047FFF7CDF8FFF7BFFEFFF72BFEFFF763
:1013500087FE00F01FF8FFF7EFFD00F037F8FEE71B
:1013600010B5EFF3058149B9EFF3108131B90849A0
:101370000968022905D1EFF3118111B16FF005045D
:1013800003E0002408B100F02BFE204610BD000051
:101390006C000020EFF3058058B9EFF3108040B9DE
:1013A00009490868022801D030B109E0EFF3118043
:1013B00030B16FF0050070470120086000207047D1
:1013C0004FF0FF30704700006C00002010B5EFF3C5
:1013D000058060B9EFF3108048B90B49086802280E
:1013E00002D0012806D00BE0EFF3118040B16FF07E
:1013F000050010BD0220086000F0E4FE002010BDD2
:101400004FF0FF3010BD00006C000020F0B585B03B
:101410004FEA01034FF00004EFF305810394A1BBF1
:10142000EFF3108189BB21490968022902D1EFF34A
:10143000118151BB48B3802618218DF8104004ADAE
:1014400042B3176807B13D4697691FB139467F1E01
:10145000382F02D21779FF0702D0002005B0F0BD67
:10146000576907B1BE08D2F808C0BCF1000F0DD013
:10147000D4685C2C18D312693AB137B18DE80610E4
:101480003246294601F043FB03900DE0D7685FB96F
:1014900012694AB903AACDE90012B2B2294601F095
:1014A00009FB012800D003940398D7E76C000020C3
:1014B0002DE9F041134C0F46054666692068001D72
:1014C00000F028FC681C07D137B12168BDE8F04165
:1014D0000D48091D00F070BC20683544B5424560D8
:1014E000216805D2A068BDE8F041091D00F04CBCA0
:1014F0006068091D00F048FC206B854200D225631E
:10150000BDE8F0811C0000202C0600202DE9F041F0
:10151000054600F05DFC2D4C2069401C20612068D0
:101520002B4F10B1E06930B32BE025602069012812
:1015300027D1002606EB860007EB800000F016FCA2
:10154000761C382EF6D3234800F010FC21481430C6
:1015500000F00CFC1F48283000F008FC1D483C300F
:1015600000F004FC1B48503000F000FC194860609B
:101570001430A06005E02068E96AC06A884200D89B
:101580002560E06A401CE0626864E86AA1698842FC
:1015900000D9A06100EB800007EB8000291D00F05E
:1015A0000BFC00F035FCE06900280CD02068E96AEB
:1015B000C06A884207D208494FF080500860BFF3E4
:1015C0004F8FBFF36F8FBDE8F08100001C0000203B
:1015D0007C010020DC05002004ED00E038B500F0BF
:1015E000F7FB104CA068C8B90F4800F0BFFB0E48CD
:1015F000143000F0BBFB0C482060143060600A4BD4
:1016000000202833009003F1500210210A2000F03E
:10161000ECFEA06010B105A100F078FCBDE83840F8
:1016200000F0F6BB5800002040060020546D7251B7
:101630000000000030B4026C0B46002A0BD0C168D9
:101640001144C1604468A14201D30168C16030BC4B
:101650001846FEF7B3BD30BC70472DE9F041856BED
:10166000174604460026026C82B1C7B1E068FEF757
:10167000A5FDE168206C091AE1602268914202D25E
:101680006168081AE060022F16D017E02068A8B938
:10169000606801F0DFFA0646002060600EE0A06896
:1016A000FEF78CFD216CA0680844A0606168884248
:1016B00004D32068A06001E005B16D1E6D1CA56318
:1016C0003046BDE8F08110B5044690F8590058B195
:1016D00001280CD002280FD0502080F31188BFF3CE
:1016E0004F8FBFF36F8FFEE7206B00F0A5FB204606
:1016F000BDE8104000F0A0BB10BD000010484FF442
:101700004061420706D0C01D0D4920F00700411A74
:10171000C1F540610B4A00230144C2E900030839C6
:10172000103A21F0070111604B600B600B1AC0E901
:10173000001393604FF000405360D060704700008A
:10174000100E002080000020154E164CA6F29C477B
:101750004FF08058DFF8509012E000BF00F038FBE7
:10176000F068C568281D00F0D5FA2069401E206188
:10177000E068401EE06000F04BFB2846FFF7A3FF47
:10178000E0680028EAD13868012805D9C9F8008046
:10179000BFF34F8FBFF36F8F00F0E6FAF0E7000062
:1017A000180600201C00002004ED00E070B51D4666
:1017B000049C51B1C4F80020C4E90F010121204666
:1017C00000F046FE84F84C5070BD2460F4E72DE92B
:1017D000F0470E46DDE90984174682469100994696
:1017E000089DA522206BFEF7FBFC6FF00301206B28
:1017F00001EB8701084420F00707780707D0502045
:1018000080F31188BFF34F8FBFF36F8FFEE722186D
:10181000315C82F83410315C11B1401C1028F6D3D1
:10182000002684F84360382D00D33725E562C4E9EB
:101830001356201D00F0A5FA04F1180000F0A1FADB
:101840002461C5F138006462A061666584F858605F
:101850004A465146384600F04BFA2060B8F1000F76
:1018600001D0C8F80040BDE8F087000030B511494C
:1018700000E011460A688242FBD34B685C18844240
:1018800003D1406818444860084643681C189442D5
:1018900009D1084C103C2468A24209D052681A446D
:1018A00042600A6812680260814200D0086030BD60
:1018B0000460F9E78000002070B5002441600B4D02
:1018C0000061914206D8D11A8269914206D2011D67
:1018D000686807E09A4203D2994201D3012403E0E9
:1018E000011D286800F050FA204670BD5800002005
:1018F00010B5044600F06CFAA06B28B15FF000044C
:1019000000F086FA204610BD0124F9E730B589B011
:10191000304D55E00498002806DADDE90601059A05
:101920009047049800284BDB069C606910B1201D8D
:1019300000F0F0F902A800F0B9F8024604980A286D
:101940003ED2DFE800F00505053D263705053D26BA
:101950000598A169034601442046FFF7ADFF00B397
:10196000616A20468847E069012829D1002000905B
:101970000598A169002342181946204601F0B0FAE3
:1019800078B9502080F31188BFF34F8FBFF36F8F6A
:10199000FEE70598A06128B1811813462046FFF79D
:1019A0008BFF0DE0502080F31188BFF34F8FBFF302
:1019B0006F8FFEE794F82C0010B9204600F03CFA37
:1019C000002204A9A86800F0E3FE0028A2D109B013
:1019D00030BD0000580000202DE9FC410F460546AF
:1019E00000F034FC01A800F061F80446019818B139
:1019F00001F0E4F9BDE8FC81224EAFB170680068E7
:101A0000A8B30027291B3A46B06800F093FA01F00A
:101A1000D5F90028EED11C494FF080500860BFF383
:101A20004F8FBFF36F8FE5E7A542EBD801F0C6F902
:101A300030682746C068C468201D00F06BF9E06973
:101A4000012810D1A0692B4641193A462046FFF7DC
:101A500033FF40B100200346014600902A4620464D
:101A600001F03EFA20B1616A20468847C2E707E0EC
:101A7000502080F31188BFF34F8FBFF36F8FFEE7C5
:101A80000127BFE75800002004ED00E00648416848
:101A9000096829B14168C968C96849680163704724
:101AA0004FF0FF31FAE700001C00002070B505463A
:101AB00001F066F8064E04463069844203D200F015
:101AC00009F8012000E0002028602046346170BD44
:101AD00058000020F8B5194D1FE0C068C4680668BA
:101AE000201D00F017F9616A20468847E069012847
:101AF00013D1A0693044B04206D924616060211D31
:101B0000286800F041F908E00020034601460090F3
:101B10003246204601F0E4F938B12868016800290E
:101B2000DBD16968C5E90010F8BD502080F3118849
:101B3000BFF34F8FBFF36F8FFEE700005800002008
:101B400008484068401C4FF0500080F3118804D0D2
:101B5000BFF34F8FBFF36F8FFEE7BFF34F8FBFF31E
:101B60006F8FFEE788000020074C2068016841B1B4
:101B7000C0680021D0F80000FFF72EFFFFF7C6FE77
:101B8000F3E701210020F7E7580000202DE9F0419C
:101B9000044600F01DF994F9455004F1240609E0CB
:101BA000606A48B1304601F0D1F808B100F088FA17
:101BB0006D1E6DB2002DF3DC4FF0FF3684F84560EA
:101BC00000F026F900F004F994F9445004F11007EC
:101BD00009E0206948B1384601F0B8F808B100F0D2
:101BE0006FFA6D1E6DB2002DF3DC84F84460BDE821
:101BF000F04100F00DB900002DE9F0410546002745
:101C000000F024FB334E306808B9FFF777FDF06829
:101C1000054216D1ADB1083568070ED005F00700B2
:101C2000C0F108000544680707D0502080F31188F0
:101C3000BFF34F8FBFF36F8FFEE715B1706885421A
:101C400002D901F0BBF836E02248103001460C689A
:101C500001E020460C466168A94202D221680029B1
:101C6000F7D131688C42ECD0076821680160606868
:101C70000837411B10290ED96019420707D05020A0
:101C800080F31188BFF34F8FBFF36F8FFEE7416082
:101C90006560FFF7EBFD61687068401A7060B268BC
:101CA000904200D2B060F06801430020C4E9000116
:101CB00001F084F80FB900F058F8780707D05020E9
:101CC00080F31188BFF34F8FBFF36F8FFEE7384665
:101CD000BDE8F081700000200449086818B1086868
:101CE000026D521C02650868704700001C0000204D
:101CF00010B5031F4FF080741C601B1F21F0010101
:101D00001960191F024B0B60143940380A6010BD6E
:101D1000411B0008D0E9013201699A60D0E9012332
:101D20005A604A68824201D182684A600022026198
:101D30000868401E0860086870470000034B036095
:101D400003F15C0008608020106070475807002095
:101D5000044B036003F15C0008604FF48070106076
:101D600070470000B4090020FEE7FEE700F108011B
:101D70004FF0FF32C0E90112C16001610021016032
:101D8000704700210161704730B50B685A1C02D0C2
:101D900000F1080202E0026904E022465468256866
:101DA0009D42FAD953684B6099608A60516008611E
:101DB0000168491C016030BD42684A6093688B60CD
:101DC00093685960916008610168491C016070471F
:101DD000502080F31188BFF34F8FBFF36F8F0A49F4
:101DE0004868401C486001280CD10848006810F081
:101DF000FF0F07D0502080F31188BFF34F8FBFF340
:101E00006F8FFEE7704700008800002004ED00E0BF
:101E10000849486828B1401E486001D180F3118804
:101E20007047502080F31188BFF34F8FBFF36F8F3F
:101E3000FEE700008800002070B5002827D0144D70
:101E4000A0F108046168E868014207D1502080F3DE
:101E50001188BFF34F8FBFF36F8FFEE722683AB14F
:101E6000502080F31188BFF34F8FBFF36F8FFEE7D1
:101E70008143616000F0EAF960686968084468605D
:101E80002046FFF7F3FCBDE8704000F097BF70BD3F
:101E9000700000204FF0E0200021016181610549C0
:101EA0004FF47A720968B1FBF2F1491E41610721D2
:101EB000016170471800002010B5FEF769F911495B
:101EC00010280ED300F1E02090F8F0030A78904239
:101ED00007D2502080F31188BFF34F8FBFF36F8F6D
:101EE000FEE709480068896800F4E060884207D985
:101EF000502080F31188BFF34F8FBFF36F8FFEE741
:101F000010BD0000880000200CED00E010B5084B6B
:101F1000002200BF53F832401CB1521C082AF9D3EA
:101F200010BD43F8321003EBC201486010BD000041
:101F30003C01002070B515460E460446FFF748FFE9
:101F400094F944100020491C01D184F8440094F90C
:101F50004510491C01D184F84500FFF759FFA06BDB
:101F600028B92A46314604F1240000F0C7F820467B
:101F7000BDE87040FFF70ABE0C4C4FF0FF35294614
:101F8000606800F0A1FC012801D009A100E00BA1CC
:101F90001148FFF78FF91048FEF734F982B21E237B
:101FA0000D490E48FEF76EFFE9E700000000002033
:101FB00057616974696E672E2E2E0A00476574207A
:101FC00073656D6170686F726520737563636573A7
:101FD0007366756C6C790A0094000020B4000020D0
:101FE00010B5020014D00F48806B38B1502080F338
:101FF0001188BFF34F8FBFF36F8FFEE700F026F914
:1020000000211046FFF754FA00F0D8FE002807D14F
:1020100005494FF080500860BFF34F8FBFF36F8FBB
:1020200010BD00001C00002004ED00E080244FF0F3
:10203000E0254FF47A7610A11448FFF73BF91348D6
:10204000FEF7E0F882B2642310491148FEF71AFF48
:10205000C5F800420FA10D48FFF72CF90B48FEF719
:10206000D1F882B2642309490948FEF70BFF3046D4
:10207000FFF776F9DFE70000496E2074686520708D
:102080006572696F64205461736B0A0094000020CC
:10209000B4000020526573756D696E6720746865C1
:1020A00020706572696F64205461736B0A000000D0
:1020B00002498A6A02604969416070471C00002039
:1020C00001490120486270471C00002010B50C46F1
:1020D00050B1094909681831FFF756FE2046BDE89E
:1020E00010400121FFF7E4B9502080F31188BFF3BD
:1020F0004F8FBFF36F8FFEE71C00002070B51446B2
:102100000D4668B10A4909681831FFF755FE0CB150
:102110004FF0FF3521462846BDE87040FFF7C8B9AB
:10212000502080F31188BFF34F8FBFF36F8FFEE70E
:102130001C00002070B504003ED0226DA2B1E06CFE
:10214000884200D30146E06A884235D0012A33D163
:102150001A4D2A6894420FD1502080F31188BFF3A2
:102160004F8FBFF36F8FFEE7502080F31188BFF3CE
:102170004F8FBFF36F8FFEE7E162A269002A02DB97
:10218000C1F13801A1610E4E00EB8000616906EBE0
:102190008000814210D1201DFFF7BCFDE06AA969D3
:1021A000884200D9A86100EB800006EB8000211D69
:1021B000BDE87040FFF700BE70BD00001C000020AD
:1021C0007C01002030B587B00024039405AA04A93F
:1021D00003A80494FFF7B2FDDDE903010094CDE903
:1021E0000110002315A11748059A00F090FC164D28
:1021F000002868631FD000F043FE012809D0401C6E
:1022000019D1502080F31188BFF34F8FBFF36F8F28
:10221000FEE7502080F31188BFF34F8FBFF36F8F1D
:102220004FF0FF3028630120E8616C6107B0BDE822
:10223000304000F045B807B030BD000049444C457F
:1022400000000000491700081C0000200248816BB4
:10225000491C8163704700001C000020164810B51F
:10226000816B11B10121416210BD00214162816980
:10227000124A01E0B9B1491E01EB810352F8233043
:10228000002BF7D001EB810302EB830202F108047B
:1022900053685B685360A34201D15B685360DA689E
:1022A0000260816110BD502080F31188BFF34F8F11
:1022B000BFF36F8FFEE700001C0000207C010020B0
:1022C0001CB5264908780190FF20087008788DF821
:1022D00000009DF800009DF8002000F0F000904202
:1022E00007D0502080F31188BFF34F8FBFF36F8F5B
:1022F000FEE79DF800001A4B00F050001870072010
:10230000986005E09DF8002052008DF80020401EE6
:102310009DF800201206F5D49860032807D05020BD
:1023200080F31188BFF34F8FBFF36F8FFEE74FF439
:1023300040709860019808700A48016841F4700183
:102340000160016841F070410160FFF7A3FD0020CA
:102350005860FDF7E7FE00201CBD000000E400E02F
:102360008800002020ED00E010B50C4648B1844202
:102370000FD9502080F31188BFF34F8FBFF36F8FB9
:10238000FEE7502080F31188BFF34F8FBFF36F8FAC
:10239000FEE70222002100F004F8002800D0846348
:1023A00010BDF8B517460E46050014D0DEB105FB8A
:1023B00006F05030FFF720FC04000AD0002084F81B
:1023C000460004F150023B46314628460094FFF790
:1023D000EDF92046F8BD502080F31188BFF34F8FF0
:1023E000BFF36F8FFEE70020E3E738B5049D18B117
:1023F00053B1CAB181B120E0502080F31188BFF3FE
:102400004F8FBFF36F8FFEE7502080F31188BFF32B
:102410004F8FBFF36F8FFEE7502080F31188BFF31B
:102420004F8FBFF36F8FFEE739B1502080F31188D3
:10243000BFF34F8FBFF36F8FFEE750241C4601237D
:1024400084F846302B460094FFF7B0F9204638BD9B
:1024500070B50D46040025D0FFF7BAFCD4E90F2073
:10246000216802FB001161600021A1632168A16065
:102470000A46D4E90F01401E00FB0121E16021461C
:102480004FF0FF3001F8440F487004F110008DB197
:10249000FFF76CFC04F12400FFF768FCFFF7B8FCC1
:1024A000012070BD502080F31188BFF34F8FBFF320
:1024B0006F8FFEE721690029F0D000F047FC00286B
:1024C000ECD004494FF080500860BFF34F8FBFF34A
:1024D0006F8FE3E704ED00E02DE9FF4782B01D4672
:1024E0008A464FF00008040003D0BAF1000F08D06C
:1024F00011E0502080F31188BFF34F8FBFF36F8F2F
:10250000FEE7206C38B1502080F31188BFF34F8F65
:10251000BFF36F8FFEE7022D0AD1E06B012807D0D1
:10252000502080F31188BFF34F8FBFF36F8FFEE70A
:1025300000F018FB3F4F4FF000094FF0805648B9AC
:10254000049838B1502080F31188BFF34F8FBFF348
:102550006F8FFEE7FFF73CFCA06BE16B884207D36F
:10256000022D05D00498D0B1B8F1000F1AD01EE0AA
:102570002A4651462046FFF770F8616A19B104F106
:10258000240000F0E3FB20B13E60BFF34F8FBFF3A8
:102590006F8FFFF73DFC012006B0BDE8F087FFF725
:1025A00037FC22E06846FFF783FD4FF00108FFF794
:1025B0002FFCFFF74BFEFFF70BFC94F94400401C87
:1025C00001D184F8449094F94500401C01D184F86D
:1025D0004590FFF71DFC04A9684600F031FA30B1C0
:1025E0002046FFF7D3FA00F0E9FB0020D4E7FFF71D
:1025F000EFFBA06BE16B884213D1FFF709FC04F1FC
:1026000010000499FFF762FD2046FFF7BFFA00F0C3
:10261000D5FB00289ED13E60BFF34F8FBFF36F8F75
:1026200098E7FFF7F5FB2046FFF7B0FA00F0C6FB8E
:1026300090E7000004ED00E02DE9F0471F469046CA
:102640008946040003D0B9F1000F08D011E05020F2
:1026500080F31188BFF34F8FBFF36F8FFEE7206CBD
:1026600038B1502080F31188BFF34F8FBFF36F8FC5
:10267000FEE7022F0AD1E06B012807D0502080F33B
:102680001188BFF34F8FBFF36F8FFEE7FFF714FC86
:102690005020EFF3118680F31188BFF34F8FBFF303
:1026A0006F8FA06BE16B884206D3022F04D000200D
:1026B00086F31188BDE8F08794F945503A464946BB
:1026C0002046FEF7CAFF681C04D06D1C84F84550F4
:1026D0000120EDE7606A0028FAD004F1240000F040
:1026E00035FB0028F4D0B8F1000FF1D00121C8F873
:1026F0000010EDE770B50E46040009D0206C78B1EB
:10270000502080F31188BFF34F8FBFF36F8FFEE728
:10271000502080F31188BFF34F8FBFF36F8FFEE718
:10272000206848B9606838B1502080F31188BFF341
:102730004F8FBFF36F8FFEE7FFF7BEFB5020EFF325
:10274000118580F31188BFF34F8FBFF36F8FA16B9B
:10275000E06B884218D994F94500491CA163411CDB
:1027600004D0401C84F8450001200EE0606A002877
:10277000FAD004F1240000F0E9FA0028F4D0002E89
:10278000F2D001203060EFE7002085F3118870BDA2
:102790002DE9F747002683B08A46040003D0BAF13A
:1027A000000F08D011E0502080F31188BFF34F8F45
:1027B000BFF36F8FFEE7206C38B1502080F3118893
:1027C000BFF34F8FBFF36F8FFEE700F0CBF9DFF859
:1027D000F4804FF000094FF0805748B9059838B1A0
:1027E000502080F31188BFF34F8FBFF36F8FFEE748
:1027F000FFF7EEFAA56BC5B151462046FEF71AFF6A
:102800006D1EA563206950B104F1100000F09EFA1E
:1028100028B1C8F80070BFF34F8FBFF36F8FFFF779
:10282000F7FA012006B0BDE8F087059808B11EB19F
:1028300006E0FFF7EDFA27E06846FFF739FC0126CE
:10284000FFF7E6FAFFF702FDFFF7C2FA94F944003A
:10285000401C01D184F8449094F94500401C01D1FA
:1028600084F84590FFF7D4FA05A9684600F0E8F827
:10287000002820460AD0FFF789F900F09FFA204689
:10288000FFF736F80028B3D00020CBE7FFF730F889
:1028900090B104F124000599FFF718FC2046FFF7DA
:1028A00075F900F08BFA0028A2D1C8F80070BFF3C8
:1028B0004F8FBFF36F8F9BE72046FFF767F900F05C
:1028C0007DFA95E704ED00E02DE9F343002683B09F
:1028D0000400354609D0206C78B1502080F311886F
:1028E000BFF34F8FBFF36F8FFEE7502080F3118847
:1028F000BFF34F8FBFF36F8FFEE700F033F9DFF8C0
:102900003C814FF000094FF0805748B9049838B126
:10291000502080F31188BFF34F8FBFF36F8FFEE716
:10292000FFF756FAA06BC8B1401EA063206810B92B
:10293000FFF7D2F96060206950B104F1100000F097
:1029400005FA28B1C8F80070BFF34F8FBFF36F8F3F
:10295000FFF75EFA012005B0BDE8F083049808B1E6
:1029600066B10FE03DB1502080F31188BFF34F8F67
:10297000BFF36F8FFEE7FFF74BFA5DE06846FFF7A6
:1029800097FB0126FFF744FAFFF760FCFFF720FAF8
:1029900094F94400401C01D184F8449094F9450016
:1029A000401C01D184F84590FFF732FA04A968462B
:1029B00000F046F80028204612D0FFF7E7F800F0B4
:1029C000FDF92046FEF794FF0028A9D09DB3FFF73C
:1029D000FFF9606A50B3206B0068C0F1380126E04F
:1029E000FEF786FFE0B1206838B9FFF7F1F96068BB
:1029F00000F070F90546FFF70BFA04F12400049982
:102A0000FFF764FB2046FFF7C1F800F0D7F9002874
:102A100086D1C8F80070BFF34F8FBFF36F8F7FE789
:102A20002046FFF7B3F800F0C9F979E700216068A4
:102A3000FFF780FB9FE7FFE700208CE704ED00E055
:102A40002DE9F0410C46050011D0C4B1FFF7C0F9E3
:102A5000174B5A696E682068911B471C17D02F6866
:102A60009B6A9F4219D0964217D8012410E050204B
:102A700080F31188BFF34F8FBFF36F8FFEE75020B5
:102A800080F31188BFF34F8FBFF36F8FFEE70024F1
:102A9000FFF7BEF92046BDE8F081884205D9401A0B
:102AA00020602846FFF704FBF1E700202060DCE708
:102AB0001C0000202DE9FF5F8346DDE90E87994663
:102AC00016468A469000FFF797F805001CD05C2058
:102AD000FFF792F8040014D00020256384F8590011
:102AE000CDE90240CDE900874B4632465146584673
:102AF000FEF76DFE2046FEF709FD012004B0BDE89B
:102B0000F09F2846FFF798F94FF0FF30F6E7F0B551
:102B100085B0DDE90B640A9DA6B1DCB15C270097A6
:102B20002663022684F85960002604AFCDE90246E8
:102B3000CDE90057FEF74BFE2046FEF7E7FC049870
:102B400005B0F0BD502080F31188BFF34F8FBFF365
:102B50006F8FFEE7502080F31188BFF34F8FBFF3D4
:102B60006F8FFEE70548C16919B1806B18B100206D
:102B70007047012070470220704700001C000020B1
:102B800001484069704700001C0000202DE9F04119
:102B90002E4C0027A06B40B1206A401C2062606A66
:102BA00000B101273846BDE8F0816669761C666190
:102BB00013D16068006838B1502080F31188BFF3EA
:102BC0004F8FBFF36F8FFEE76068A1686160A06000
:102BD000A06A401CA062FEF759FF206BDFF87080EE
:102BE000864209D36068006880B16068C068C568C3
:102BF000686886420DD220632068C06A00EB8001BD
:102C000058F821000128CAD90127C8E74FF0FF3042
:102C1000F1E7281DFFF77EF8A86A18B105F1180042
:102C2000FFF778F8E86AA169884200D9A06100EB53
:102C3000800108EB8100291DFFF7BEF8E86A2168D2
:102C4000C96A8842CED30127CCE700001C000020CF
:102C50007C01002070B504004FF0000133D01B4D03
:102C60002868844207D0502080F31188BFF34F8F2B
:102C7000BFF36F8FFEE7206D38B1401E2065E36C17
:102C8000E26A9A421FD040B11DE0502080F31188C3
:102C9000BFF34F8FBFF36F8FFEE7201DFFF73AF8AA
:102CA000E06CE062C0F13800A061E06AA969884286
:102CB00000D9A861064900EB800001EB8000211DCE
:102CC000FFF77AF80121084670BD00001C000020C3
:102CD0007C01002070B504004FF000002BD0194D8E
:102CE000E16A2A68D26A914226D2A069002804DBF0
:102CF0002868C06AC0F13800A061134E01EB810161
:102D0000606906EB8101884211D1201DFFF702F8AE
:102D10002868C06AE062A969884200D9A86100EB0E
:102D2000800006EB8000211DFFF746F802E02868CE
:102D3000C06AE062012070BDE16C2A68D26A9142EB
:102D4000F8D370BD1C0000207C01002070B5C06865
:102D5000C46854B104F118000646FEF7DBFF144DB9
:102D6000A86B50B13146134815E0502080F311880C
:102D7000BFF34F8FBFF36F8FFEE7201DFEF7CAFF33
:102D8000E06AA969884200D9A8610B4900EB80007C
:102D900001EB8000211DFFF70FF8E06A2968C96A7E
:102DA000884202D90120686270BD002070BD000019
:102DB0001C000020040600207C0100202DE9F047C3
:102DC0002C4D00242746A86B38B1FFF701F8A86BFB
:102DD000401EA863A86B40B146E0502080F31188E4
:102DE000BFF34F8FBFF36F8FFEE72969224E01209B
:102DF000D1B3A6F5916980463068E0B1F068C46847
:102E000004F11800FEF786FF201DFEF783FFE06A3D
:102E1000A969884200D9A86100EB800109EB810013
:102E2000211DFEF7C9FFE06A2968C96A8842E3D319
:102E3000C5F82480E0E70CB1FEF728FE2C6A4CB1FF
:102E40004FEA0806FFF7A2FE00B16E62641EF9D1D8
:102E500000202862686A38B10849012738070860ED
:102E6000BFF34F8FBFF36F8FFEF7D2FF3846BDE839
:102E7000F08700001C0000200406002004ED00E0A4
:102E800010B586B0FEF7AAFB114CA068B8B10020BF
:102E90000390049005AA04A903A8FEF759FFDDE9F1
:102EA000032102208DE8070000230AA10B48059AA0
:102EB000FFF72DFEE06010B106B0012010BD5020DC
:102EC00080F31188BFF34F8FBFF36F8FFEE70000D1
:102ED00058000020546D722053766300691B00086F
:102EE0002DE9FF411E46134602000A9D4FF00000E7
:102EF00016D0144CA768002F0FD0CDE90013029212
:102F0000062917DAFFF72EFE02284FF000030FD034
:102F100000226946A068FFF7DFFA04B0BDE8F0813F
:102F2000502080F31188BFF34F8FBFF36F8FFEE700
:102F30002A46EEE70023324669463846FFF77CFB17
:102F4000EBE7000058000020842F0008000000007C
:102F5000000000000000000000000000000200006F
:102F60001800000000000000000000000000000049
:102F70000000000001020304060708090000000029
:102F8000010203045461736B5F310000AC2F000831
:102F90000000002094000000F812000840300008F3
:102FA000940000207C1D00000813000800000000B1
:102FB0000000000000000000010000001000000000
:102FC000000000000024F4000000000000000000E9
:102FD00000000000000000000000000000000000F1
:102FE00000000000000000000000000000000000E1
:102FF00000000000000000000000000000000000D1
:1030000000000000000000000000000000000000C0
:1030100000000000000000000000000000000000B0
:1030200000000000000000000000000000000000A0
:103030000000000000000000AAAAAAAA00000000E8
:04000005080000ED02
:00000001FF
