:020000040800F2
:10000000182600209901000897130008B91100086C
:100010009513000865020008711600080000000032
:1000200000000000000000000000000001010008C6
:10003000670200080000000045010008991300084D
:10004000B3010008B3010008B3010008B3010008C0
:10005000B3010008B3010008B3010008B3010008B0
:10006000B3010008B3010008B3010008B3010008A0
:10007000B3010008B3010008B3010008B301000890
:10008000B3010008B3010008B3010008B301000880
:10009000B3010008B3010008B3010008B301000870
:1000A000B3010008B3010008B3010008B301000860
:1000B000B301000819140008B3010008B3010008D7
:1000C000B3010008B3010008B3010008B301000840
:1000D000B3010008B301000865160008B301000869
:1000E000B3010008B3010008B3010008DFF80CD029
:1000F00000F0A6F8004800473B180008182600202A
:10010000224B19680868B0E8F00F80F30988BFF344
:100110006F8F4FF0000080F311884EF00D0E704786
:100120000000000006480068006880F3088862B696
:1001300061B6BFF34F8FBFF36F8F00DF00BF00BF0B
:1001400008ED00E0EFF30980BFF36F8F0F4B1A68E3
:1001500020E9F00F106008B54FF0500080F31188CF
:10016000BFF34F8FBFF36F8F02F004FB4FF000001F
:1001700080F31188BDE8084019680868B0E8F00FFE
:1001800080F30988BFF36F8F704700BF30000020F5
:10019000EFF3058070470000064880470648004797
:1001A000FEE7FEE7FEE7FEE7FEE7FEE7FEE7FEE727
:1001B000FEE7FEE715140008ED00000840EA010321
:1001C0009B0703D009E008C9121F08C0042AFAD20D
:1001D00003E011F8013B00F8013B521EF9D27047D1
:1001E000D2B201E000F8012B491EFBD27047002279
:1001F000F6E710B513460A4604461946FFF7F0FF26
:10020000204610BD421C10F8011B0029FBD1801AAA
:10021000704730B50B46014600202022012409E03A
:1002200021FA02F59D4205D303FA02F5491B04FAAF
:1002300002F52844151EA2F10102F1DC30BD0000D8
:10024000064C074D06E0E06840F0010394E8070023
:1002500098471034AC42F6D3FFF74CFFC434000883
:10026000E4340008FEE7704772B6FEE710B590F878
:1002700021100024022903D00421816301243DE0E0
:1002800001680A6822F00E020A6001680A6822F01A
:1002900001020A601A4A0168914201D1012121E05C
:1002A000174A1432914201D110211BE0144A28321E
:1002B000914201D1891515E0114A3C32914201D198
:1002C00089140FE00E4A5032914202D14FF480312E
:1002D00008E00B4A6432914202D14FF4801101E0F0
:1002E0004FF08071064A083A5160012180F82110D0
:1002F000002180F82010416B01B18847204610BDD5
:10030000080002402DE9F84FDFF8B891002409F108
:10031000040A0AF1040B23460F270BF1040EC9E06F
:100320000125A5402A40AA427DD1674ED1F804C0DC
:10033000ACEB0608B44532D014DCBCF1030F3AD064
:1003400009DCBCF1000F2AD0BCF1010F1CD0BCF1BC
:10035000020F31D11DE0BCF1110F17D0BCF1120F0B
:100360002AD119E0B8F5881F19D006DCB8F5803F0E
:1003700015D0B8F5801F1FD111E0B8F5001F0ED0C1
:10038000B8F5041F18D10AE0CB6815E0CB681B1D37
:1003900012E0CB6808330FE0CB680C330CE08B68BD
:1003A0002BB1012B4FF0080303D0456104E0042377
:1003B00002E0056100E00023FF2A01D8064601E0C3
:1003C00000F104064FEA840501D9A5F12005D6F80D
:1003D000008007FA05FC28EA0C0803FA05F548EA4C
:1003E0000508C6F800804D68ED0062D5374DAE694E
:1003F00046F00106AE61AD6924F0030605F0010583
:100400000095334D06EB050CDCF80850A607360FB7
:1004100007FA06F825EA0805DFF8B880404503D159
:100420004FF0000817E044E0DFF8AC80404502D10F
:100430004FF001080FE0DFF8A480404502D14FF0F3
:10044000020808E0DFF89880404502D14FF0030829
:1004500001E04FF0040808FA06F848EA0508CCF86D
:1004600008804D68D9F80060ED034D4601D516436C
:1004700000E096432E604D68DAF80060AD03554603
:1004800001D5164300E096432E604D68DBF800600E
:10049000ED025D4601D5164300E096432E604D689F
:1004A000DEF80060AD02754601D5164300E09643C4
:1004B0002E60641C0D682A46E5407FF431AFBDE82C
:1004C000F88F0000000401400000111000100240ED
:1004D0000000014000080140000C014000100140F4
:1004E000001401408068084000D001207047C268B5
:1004F00021EA02030A4043EA0241016170470AB15E
:10050000016170470904FBE70148806870470000FB
:100510002000002002488168027811448160704701
:1005200020000020074810B5016841F0100101606B
:10053000032000F095F8002000F006F800F03EF8E7
:10054000002010BD0020024000B5014687B0002207
:100550001D2000F065F81D2000F054F81348C16913
:1005600041F00201C161C06905A900F002000690D6
:10057000684600F01DF900F03BF90D490D4AB0FB4B
:10058000F1F10D48491E0260416040F2E73200215E
:10059000C0E90321816000F013FB10B1012007B016
:1005A00000BD054800F03AFBF9E7000000100240EA
:1005B00040420F0000040040FC0000200F4808B536
:1005C000816941F001018161816901F001010091BE
:1005D000C16941F08051C161C069002200F08050C2
:1005E00000900F21901E00F01BF80548416821F093
:1005F000E06141F00071416008BD00000010024060
:1006000000000140002809DB00F01F020121914099
:100610004009800000F1E020C0F8001170470000A0
:10062000F0B40E4B1B680C46C3F30223C3F107055D
:10063000042D00D90425191D072901D2002300E04B
:10064000DB1E012606FA05F1491E214099409E4015
:10065000761E16403143F0BC01F020B80CED00E0EE
:10066000064900F0070208684FF6FF03184040EA09
:100670000220034A10430860704700000CED00E0C0
:100680000000FA052DE9F0470F46050061D0434E02
:10069000306800F00700B84209D2306820F0070047
:1006A00038433060306800F00700B84251D1286804
:1006B0003B4C810712D5400703D5606840F4E060E9
:1006C00060602878000703D5606840F4605060607F
:1006D0006068A96820F0F000084360602878C007CF
:1006E00028D06868012810D02168022810D0890716
:1006F00000292EDA616821F0030101436160FFF7F0
:1007000003FF804641F288390DE021688903EFE755
:100710008901EDE7FFF7F8FEA0EB0801494502D992
:100720000320BDE8F0876068696800F00C00B0EB5A
:10073000810FEFD1306800F00700B8420BD9306864
:1007400020F0070038433060306800F00700B842FE
:1007500001D00120E5E72878400705D56068E96801
:1007600020F4E060084360602878000706D56068E0
:10077000296920F4605040EAC100606000F058F838
:100780006168084AC1F30311515CC840064908601A
:1007900006480068FFF7D8FE0020C2E700200240AC
:1007A00000100240A43400082C0000202400002087
:1007B0000F2202600C4A536803F00303436053683E
:1007C00003F0F0038360536803F4E063C36052688E
:1007D0004FF4E06303EAD20202610448006800F0CB
:1007E000070008607047000000100240002002402F
:1007F0000448054900684968044AC1F30221515C74
:10080000C84070472C00002000100240B43400089B
:100810000448054900684968044AC1F3C221515C93
:10082000C84070472C00002000100240B43400087B
:1008300012A185B00FC98DE80F0014A0144A0068FA
:1008400004905168134801F00C03042B10D0082BBE
:100850000ED1C1F38343C9031DF803000AD55168C3
:1008600004AAC1F34041515C0A4A5043B0FBF1F085
:1008700005B0704708494843FAE700000203040541
:10088000060708090A0B0C0D0E0F101001020000DC
:100890000010024000127A0000093D002DE9F84FD7
:1008A000040070D02078C04DC00749D06868C0F3FC
:1008B0008100012807D06868C0F38100022809D1AF
:1008C0006868C00306D52868800339D560680028A9
:1008D000E7D035E06068B0F5803F0BD010B1B0F5DF
:1008E000A02F11D0286820F480302860286820F4D8
:1008F000802002E0286840F480302860606890B171
:10090000FFF702FE06460AE0286840F480202860CF
:10091000F0E700BFFFF7F8FD801B642873D8286854
:100920008003F7D50CE0FFF7EFFD064605E000BFBA
:10093000FFF7EAFD801B6428F0D828688003F7D40D
:1009400020789A4E80074FF001094FF0000839D502
:10095000686810F00C0F07D06868C0F381000228A7
:1009600009D16868C00306D42868800714D52069B7
:10097000012808D110E02069B0B1C6F80090FFF757
:10098000C3FD074605E00AE1FFF7BEFDC01B0228D4
:10099000C4D828688007F7D52868616920F0F80076
:1009A00040EAC10028600DE0C6F80080FFF7ACFD0A
:1009B000074604E0FFF7A8FDC01B022823D82868DB
:1009C0008007F7D4207800072CD57948A169D9B1E0
:1009D000C0F80090FFF798FD074604E0FFF794FD8C
:1009E000C01B02280FD8686A8007F7D571484FF4FA
:1009F000FA510068B0FBF1F0009000BF0098411E72
:100A00000091FAD20EE080E0C0F80080FFF77CFD94
:100A1000074604E0FFF778FDC01B022875D8686A16
:100A20008007F7D42078400760D5E8690027C00028
:100A300008D4E86940F08050E861E869012700F0D7
:100A4000805000905C480168C90513D40168834652
:100A500041F480710160FFF757FD824606E000BF58
:100A6000FFF752FDA0EB0A0064284ED8DBF8000027
:100A7000C005F5D5E06801280AD008B1052813D0D3
:100A8000286A20F001002862286A20F0040002E0B1
:100A9000286A40F001002862E06841F2883B98B182
:100AA000FFF732FD82460BE0286A40F0040028621E
:100AB000EEE700BFFFF728FDA0EB0A0159455AD821
:100AC000286A8007F6D50CE0FFF71EFD824605E098
:100AD000FFF71AFDA0EB0A0159454CD8286A800798
:100AE000F6D41FB1E86920F08050E861E06988B36E
:100AF0006968C1F38101022944D00228C6F86080E8
:100B000004D0FFF701FD044638E034E0FFF7FCFCB9
:100B1000074604E0FFF7F8FCC01B02282BD8286822
:100B20008001F7D4206AB0F5803F05D16868A168DC
:100B300020F4003008436860D4E90801084369687C
:100B400021F4741108436860C6F86090FFF7DCFC7C
:100B5000044606E025E000BFFFF7D6FC001B022894
:100B600009D828688001F7D51BE000BFFFF7CCFC4F
:100B7000001B022802D90320BDE8F88F28688001F5
:100B8000F4D40EE00128F7D06868226A00F48031BE
:100B9000914204D1616A00F47010884201D00120B2
:100BA000EAE70020E8E700000010024000004242AF
:100BB000800442422C0000200070004070477047C3
:100BC00010B5040003D094F83D0010B107E00120F7
:100BD00010BD002084F83C00204600F01EF80220E2
:100BE00084F83D00211D206800F01CFC012084F8E1
:100BF000460084F83E0084F83F0084F8400084F802
:100C0000410084F8420084F8430084F8440084F8EA
:100C1000450084F83D00002010BD704790F83D105D
:100C2000012901D001207047022180F83D100168A0
:100C3000CA6842F00102CA6000680B49884208D0C5
:100C4000B0F1804F05D00949884202D00849884256
:100C500004D1816801F00701062903D0016841F041
:100C60000101016000207047002C01400004004099
:100C700000080040704770B50446006801694FF0F5
:100C80000005C943890715D4C168C943890711D430
:100C9000E91E0161012020772068806980072046D5
:100CA00002D0FFF7E7FF04E000F098F8204600F0DC
:100CB00096F8257720680169C943490717D4C168A8
:100CC000C943490713D46FF0040101610220207762
:100CD0002068806910F4407F204602D0FFF7CAFFE9
:100CE00004E000F07BF8204600F079F825772068D2
:100CF0000169C943090716D4C168C943090712D459
:100D00006FF008010161042020772068C069800726
:100D1000204602D0FFF7AEFF04E000F05FF8204667
:100D200000F05DF8257720680169C943C90617D42A
:100D3000C168C943C90613D46FF0100101610820CE
:100D400020772068C06910F4407F204602D0FFF76A
:100D500091FF04E000F042F8204600F040F82577CB
:100D600020680169C943C90708D1C168C943C907D7
:100D700004D1891E0161204600F032F82068016923
:100D8000C943090609D4C168C943090605D46FF0EF
:100D9000800101612046FFF711FF20680169C94306
:100DA000490609D4C168C943490605D46FF040011A
:100DB0000161204600F01EF820680169C9438906D8
:100DC0000BD4C168C943890607D46FF020010161C3
:100DD0002046BDE87040FFF7F2BE70BD7047704717
:100DE00000680349884201D1FFF794BB70470000B7
:100DF000000400407047704770B5026804461068F0
:100E0000D168536910F00F0F52D003F0010501F4BF
:100E100090762E435FD0C20705D0CA0503D5E26B9A
:100E200042F00102E263420705D5DA0703D0E26B24
:100E300042F00202E263820705D5DA0703D0E26BD3
:100E400042F00402E263020707D501F020022A43C0
:100E500003D0E26B42F00802E263E26B002A33D077
:100E6000800604D5880602D5204600F027FB2068BE
:100E70004069E16BC0F38010090700D428B3204615
:100E800000F00EFB2068416949061AD5416921F03E
:100E900040014161606BA0B12D494163606BFFF778
:100EA000E5F9002810D0606B416BBDE87040084741
:100EB000830610D58B060ED52046BDE8704000F0A5
:100EC000FDBA2046FFF797FF70BD2046FFF793FF5E
:100ED0000020E06370BD03062BD50B0629D594F8DE
:100EE00039002128F6D1A068B0F5805F01D12069D2
:100EF000B0B1206A411C2162216800784860E08C12
:100F0000401E0004000CE084E4D12068C16821F098
:100F10008001C1602068C16841F04001C16070BDBE
:100F2000206A0088C0F308005060206A801C20629C
:100F3000E5E74006F3D54806F1D5D168204621F013
:100F40004001D160202184F8391000F034F970BDDF
:100F50009114000870B5040004D094F839000025FD
:100F600010B106E0012070BD84F83850204600F032
:100F700023F8242084F839002068C16821F4005146
:100F8000C160204600F0E0FA2068016921F4904138
:100F900001612068416921F02A0141612068C1682E
:100FA00041F40051C160E563202084F8390084F8E1
:100FB0003A00002070BD000030B585B000240094D8
:100FC0000194029403940068184988422BD1184870
:100FD000C16941F40031C161C16901F4003104917A
:100FE000816941F0040181618069124D00F00400C3
:100FF0000490042000900220019003200390694691
:101000002846FFF77FF90820CDE900046946284605
:101010000294FFF777F9002205212620FFF700FB55
:101020002620FFF7EFFA05B030BD00000044004075
:10103000001002400008014090F83A30202B22D1E5
:10104000F9B1F2B190F83830012B1CD08162828561
:10105000C2850021C163222280F83A2080F838102E
:101060000168CA6842F48072CA6001684A6942F045
:1010700001024A610068C16841F02001C16000209E
:101080007047012070470220704700007CB5194965
:1010900088421DD1184C00200190627817492378AE
:1010A000CA542278895C652913D02078401C2070AE
:1010B00011490122491C0F48FFF7BEFF0198012882
:1010C00006D10F4900070860BFF34F8FBFF36F8F42
:1010D0007CBD207001AD002300951A46194660685A
:1010E00001F0B6FE002300951A461946E06901F0AA
:1010F000AFFEDDE7BC00002000000020A8000020BB
:1011000004ED00E02DE9F843044690F839001F464D
:1011100016460D4620284CD1C5B1BEB194F8380012
:10112000012846D0012084F838004FF00008C4F8A8
:101130003C80212084F83900FFF7E6F9A684814637
:10114000E684A068B0F5805F03D004E00120BDE82C
:10115000F883206928B12E465FF0000584F83880B6
:101160000EE00026FAE78021204600F049FAA0B9F7
:10117000AEB116F8010B21684860E08C401EE08497
:10118000E08C4B464FF0000200970028EBD14FF067
:101190004001204600F034FA30B10320D7E735F89B
:1011A000020BC0F30800E6E7202084F83900002095
:1011B000CDE70220CBE77047FEE700001CB5012217
:1011C00025492648FFF738FF002204210A2001F0B4
:1011D00067FB214C0022641E042120610A2001F0DB
:1011E0005FFB6061216900292FD000282DD072B6E5
:1011F0001E2314221AA11948FFF784FF62B61D4A64
:1012000000211D4800F064FBE06113481824C01C55
:10121000CDE900400023802218A11A4801F0C0FD4A
:101220000D480023C01DCDE90040802216A11848BA
:1012300001F0B6FD084800230B30CDE900408022C4
:1012400014A1164801F0ACFD1CBD1E23082214A1F8
:101250000248FFF757FFFEE701000020BC00002016
:101260000A5175657565207375636365737366757B
:101270006C0A000080340008512500085461736B2B
:1012800032000000812500085461736B33000000B8
:10129000C52500085461736B34000000292600083E
:1012A0005175657565206661696C73650A0000009B
:1012B00070B586B0002425480094019402940394EC
:1012C000816941F010018161816901F0100104918F
:1012D000816941F020018161816901F0200104915F
:1012E000816941F004018161816901F00401049187
:1012F000816941F0080181618069154E00F00800A4
:101300004FF400550490002229463046FFF7F7F8C5
:1013100001200095CDE90104022003906946304682
:10132000FEF7F0FF49F6F3700324CDE900046946A7
:101330000848FEF7E7FF4FF6FF70CDE90004694665
:101340000548FEF7DFFF06B070BD00000010024048
:101350000010014000080140000C01400C4810B58D
:101360000A4901604FF4E1314160002181600C22A3
:10137000C160C0E904128161C161FFF7EBFD002883
:1013800003D0BDE81040FEF76FBF10BD0044004021
:10139000BC000020FEE7FEE710B5502080F3118866
:1013A000BFF34F8FBFF36F8F01F0DEFD18B104491B
:1013B0004FF080500860002080F3118810BD0000BD
:1013C00004ED00E010B590B028216846FEF70FFF4D
:1013D00014210AA8FEF70BFF0220009001200490C0
:1013E00010200024059007946846FFF757FA08B1CB
:1013F00072B6FEE70F20CDE90A040C940D9400218B
:101400000AA80E94FFF73EF9002801D072B6FEE755
:1014100010B010BD704700000148FFF72CBC000061
:10142000FC000020F0B50268164B174C174D4FF02A
:101430008047984205D0B84203D0A04201D0A842CC
:1014400003D122F070064A683243984205D0B84270
:1014500003D0A04201D0A84203D122F44074CA684C
:1014600022434C6922F08002224302608A68C262F1
:101470000A688262984201D10969016301214161D0
:10148000F0BD0000002C01400004004000080040B6
:1014900010B5406A0021C185C184FFF7ACFC10BDC6
:1014A0000168CA6822F49072CA6001684A6922F031
:1014B00001024A61202180F83A10704710B590F877
:1014C0003A10222901D0022010BD82684FF48053C7
:1014D0009A4201D1016921B1816A9A421BD04AB175
:1014E0000AE00268816A5268C2F308020A80816ACF
:1014F000891C08E0026972B10268526802F07F023A
:101500000A70816A491C8162C18D491E0904090C57
:10151000C18503D016E002685268F1E70168CA6825
:1015200022F02002CA600168CA6822F48072CA6090
:1015300001684A6922F001024A61202180F83A10CC
:10154000FFF7A4FD002010BD70B5044600680169D6
:10155000E26821F44051114301612169A068084308
:10156000616908432168CA6841F20C639A430243E7
:10157000CA6020684169A26921F440711143416148
:101580001E492068884202D1FFF742F901E0FFF7C7
:101590002FF900EBC00101EB0012606864218000AC
:1015A000B2FBF0F3B3FBF1F36FF018067343B2FB39
:1015B000F0F5B2FBF0F605EB8305322303EB0515DE
:1015C000B5FBF1F5B6FBF1F605F0F00505EB0615F8
:1015D000B2FBF0F6B2FBF0F0B0FBF1F06FF01802E6
:1015E000504306EB800003EB0010B0FBF1F02168E4
:1015F00000F00F002844886070BD000000380140F2
:101600002DE9F041984617460E460446069D1DE01A
:10161000681C1BD02DB1FEF777FFA0EB0800A84295
:1016200014D92068C16821F4D071C1602068416973
:1016300021F001014161202084F8390084F83A004A
:10164000002084F838000320BDE8F081206800689D
:1016500036EA000004D00020B842D9D00020F3E7D9
:101660000120F9E70148FFF7C7BB0000BC000020DC
:10167000FEE700000FB4084B10B504A902AA0398B6
:1016800000F02CF8044602A9002000F0D1F8204612
:1016900010BC5DF814FB0000311800080907090EA2
:1016A000002804DB00F1E02080F80014704700F00F
:1016B0000F0000F1E02080F8141D704702E008C818
:1016C000121F08C1002AFAD170477047002001E0BC
:1016D00001C1121F002AFBD1704700002DE9FF4F06
:1016E00089B09B460446002506E025280BD05A46C3
:1016F0000B999047641C6D1C20780028F5D10DB023
:101700002846BDE8F08F0027B8460122474900E08F
:10171000074314F8013F203B02FA03F00842F7D1D7
:1017200020782E2819D114F8010F47F004072A2831
:101730000ED06FF02F022078A0F1300109290CD8CB
:1017400008EB880102EB410100EB0108641CF2E7A1
:101750000A98641C50F8048B0A9020780028CED098
:10176000642808D0692806D075281ED05A460B99DF
:1017700090476D1C58E00A994FF00A0901C90A9177
:10178000002802DA40422D2102E0390504D52B2140
:101790008DF82010012103E0F90704D02021F7E79C
:1017A0008A4608AE0DE00021FAE70A994FF00A09CF
:1017B00001C90A91F7E74946FEF72BFD303106F8DB
:1017C000011D0028F7D1ADEB060000F120097807D4
:1017D00001D44FF00108C84502DDA8EB090000E084
:1017E00000208046002706E008A85A46C05D0B99F5
:1017F00090476D1C7F1C5745F6DB04E030205A46AD
:101800000B9990476D1CB8F10001A8F10108F5DCB7
:1018100005E016F8010B5A460B9990476D1CB9F17B
:101820000001A9F10109F4DC641C65E70928010045
:101830000A68531C0B6010707047FEF773FEFFF7C9
:10184000C1FDFFF735FDFFF789FD00F005F8FFF753
:10185000B5FC00F01DF8FEE7EFF3058058B9EFF393
:10186000108040B909490868022801D030B109E068
:10187000EFF3118030B16FF0050070470120086070
:10188000002070474FF0FF307047000080000020BC
:1018900010B5EFF3058060B9EFF3108048B90B493C
:1018A0000868022802D0012806D00BE0EFF311806F
:1018B00040B16FF0050010BD0220086000F00EFF7F
:1018C000002010BD4FF0FF3010BD00008000002050
:1018D000F0B585B04FEA01034FF00004EFF3058146
:1018E0000394A1BBEFF3108189BB21490968022948
:1018F00002D1EFF3118151BB48B3802618218DF836
:10190000104004AD42B3176807B13D4697691FB157
:1019100039467F1E382F02D21779FF0702D00020E8
:1019200005B0F0BD576907B1BE08D2F808C0BCF1D8
:10193000000F0DD0D4685C2C18D312693AB137B1BE
:101940008DE806103246294601F057FA03900DE063
:10195000D7685FB912694AB903AACDE90012B2B2D9
:10196000294601F01DFA012800D003940398D7E717
:10197000800000202DE9F041134C0F4605466669B2
:101980002068001D00F03EFC681C07D137B12168BB
:10199000BDE8F0410D48091D00F0C0BC2068354489
:1019A000B5424560216805D2A068BDE8F041091D37
:1019B00000F09CBC6068091D00F098FC206B85421B
:1019C00000D22563BDE8F0813000002034060020FD
:1019D0002DE9F041054600F0ADFC2D4C2069401C7E
:1019E000206120682B4F10B1E06930B32BE02560F7
:1019F0002069012827D1002606EB860007EB80002E
:101A000000F066FC761C382EF6D3234800F060FC0C
:101A10002148143000F05CFC1F48283000F058FCCE
:101A20001D483C3000F054FC1B48503000F050FC86
:101A3000194860601430A06005E02068E96AC06A57
:101A4000884200D82560E06A401CE0626864E86A69
:101A5000A169884200D9A06100EB800007EB8000FB
:101A6000291D00F05BFC00F085FCE06900280CD02B
:101A70002068E96AC06A884207D208494FF080505E
:101A80000860BFF34F8FBFF36F8FBDE8F081000098
:101A90003000002084010020E405002004ED00E077
:101AA00038B500F047FC104CA068C8B90F4800F0EA
:101AB0000FFC0E48143000F00BFC0C482060143072
:101AC00060600A4B00202833009003F1500210217F
:101AD0000A2000F009FFA06010B105A100F0C8FCC9
:101AE000BDE8384000F046BC6C00002048060020ED
:101AF000546D72510000000030B4026C0B46002A95
:101B00000BD0C1681144C1604468A14201D301688F
:101B1000C16030BC1846FEF751BB30BC70472DE9A0
:101B2000F041856B174604460026026C82B1C7B1AE
:101B3000E068FEF743FBE168206C091AE160226867
:101B4000914202D26168081AE060022F16D017E0B5
:101B50002068A8B9606801F0B1FA0646002060600C
:101B60000EE0A068FEF72AFB216CA0680844A06084
:101B70006168884204D32068A06001E005B16D1E51
:101B80006D1CA5633046BDE8F08110B5044690F8A1
:101B9000590058B101280CD002280FD0502080F3F2
:101BA0001188BFF34F8FBFF36F8FFEE7206B00F0FC
:101BB000F5FB2046BDE8104000F0F0BB10BD000072
:101BC00010484FF4A051420706D0C01D0D4920F027
:101BD0000700411AC1F5A0510B4A00230144C2E994
:101BE00000030839103A21F0070111604B600B60C7
:101BF0000B1AC0E9001393604FF000405360D060AF
:101C000070470000180E002094000020154E164C5E
:101C1000A6F29C474FF08058DFF8509012E000BFCA
:101C200000F088FBF068C568281D00F0EBFA206919
:101C3000401E2061E068401EE06000F09BFB2846EB
:101C4000FFF7A3FFE0680028EAD13868012805D92A
:101C5000C9F80080BFF34F8FBFF36F8F00F0FCFA1D
:101C6000F0E70000200600203000002004ED00E036
:101C700070B51D46049C51B1C4F80020C4E90F01A1
:101C80000121204600F064FE84F84C5070BD2460B1
:101C9000F4E72DE9F0470E46DDE909841746824650
:101CA00091009946089DA522206BFEF799FA6FF0E6
:101CB0000301206B01EB8701084420F00707780738
:101CC00007D0502080F31188BFF34F8FBFF36F8F81
:101CD000FEE72218315C82F83410315C11B1401CEF
:101CE0001028F6D3002684F84360382D00D337251A
:101CF000E562C4E91356201D00F0F5FA04F118005E
:101D000000F0F1FA2461C5F138006462A0616665F3
:101D100084F858604A465146384600F061FA20601F
:101D2000B8F1000F01D0C8F80040BDE8F0872DE9F8
:101D3000F0471E46DDE9089417460D0080460ED098
:101D4000002C14D0FFF7ACFEC4F80080C4E906579D
:101D5000C4E90869201DBDE8F04700F0C4BA50206E
:101D600080F31188BFF34F8FBFF36F8FFEE7BDE89D
:101D7000F087000030B5114900E011460A68824240
:101D8000FBD34B685C18844203D140681844486018
:101D9000084643681C18944209D1084C103C24683A
:101DA000A24209D052681A4442600A68126802606E
:101DB000814200D0086030BD0460F9E79400002043
:101DC00070B5002441600B4D0061914206D8D11AD4
:101DD0008269914206D2011D686807E09A4203D2E7
:101DE000994201D3012403E0011D286800F07EFA26
:101DF000204670BD6C00002010B5044600F09AFA31
:101E0000A06B28B15FF0000400F0B4FA204610BDCA
:101E10000124F9E730B589B0304D55E00498002829
:101E200006DADDE90601059A9047049800284BDBA5
:101E3000069C606910B1201D00F0E4F902A800F0D2
:101E4000B9F8024604980A283ED2DFE800F00505FA
:101E5000053D263705053D260598A1690346014441
:101E60002046FFF7ADFF00B3616A20468847E0696E
:101E7000012829D1002000900598A169002342186B
:101E80001946204601F03EFA78B9502080F31188B7
:101E9000BFF34F8FBFF36F8FFEE70598A06128B1A6
:101EA000811813462046FFF78BFF0DE0502080F38A
:101EB0001188BFF34F8FBFF36F8FFEE794F82C00AC
:101EC00010B9204600F06AFA002204A9A86800F0C0
:101ED00091FE0028A2D109B030BD00006C000020A6
:101EE0002DE9FC410F46054600F03CFC01A800F03E
:101EF00061F80446019818B101F058F9BDE8FC8179
:101F0000224EAFB170680068A8B30027291B3A467B
:101F1000B06800F0C1FA01F049F90028EED11C497F
:101F20004FF080500860BFF34F8FBFF36F8FE5E72E
:101F3000A542EBD801F03AF930682746C068C4687A
:101F4000201D00F05FF9E069012810D1A0692B463F
:101F500041193A462046FFF733FF40B100200346BF
:101F6000014600902A46204601F0CCF920B1616A72
:101F700020468847C2E707E0502080F31188BFF36E
:101F80004F8FBFF36F8FFEE70127BFE76C00002084
:101F900004ED00E006484168096829B14168C96854
:101FA000C9684968016370474FF0FF31FAE70000E4
:101FB0003000002070B5054600F0D0FF064E044604
:101FC0003069844203D200F009F8012000E00020CB
:101FD00028602046346170BD6C000020F8B5194DB2
:101FE0001FE0C068C4680668201D00F00BF9616A34
:101FF00020468847E069012813D1A0693044B042E7
:1020000006D924616060211D286800F06FF908E09E
:1020100000200346014600903246204601F072F946
:1020200038B1286801680029DBD16968C5E900106A
:10203000F8BD502080F31188BFF34F8FBFF36F8F2F
:10204000FEE700006C00002008484068401C4FF08C
:10205000500080F3118804D0BFF34F8FBFF36F8F10
:10206000FEE7BFF34F8FBFF36F8FFEE79C000020AA
:10207000074C2068016841B1C0680021D0F8000019
:10208000FFF72EFFFFF7C6FEF3E701210020F7E779
:102090006C0000202DE9F041044600F04BF994F962
:1020A000455004F1240609E0606A48B1304601F069
:1020B00045F808B100F0D8FA6D1E6DB2002DF3DCC2
:1020C0004FF0FF3684F8456000F054F900F032F923
:1020D00094F9445004F1100709E0206948B13846EA
:1020E00001F02CF808B100F0BFFA6D1E6DB2002DA2
:1020F000F3DC84F84460BDE8F04100F03BB9000037
:102100002DE9F0410546002700F02CFB334E3068E6
:1021100008B9FFF755FDF068054216D1ADB1083595
:1021200068070ED005F00700C0F1080005446807F5
:1021300007D0502080F31188BFF34F8FBFF36F8F0C
:10214000FEE715B17068854202D901F02FF836E03C
:102150002248103001460C6801E020460C466168B8
:10216000A94202D221680029F7D131688C42ECD013
:1021700007682168016060680837411B10290ED983
:102180006019420707D0502080F31188BFF34F8FAA
:10219000BFF36F8FFEE741606560FFF7EBFD61689D
:1021A0007068401A7060B268904200D2B060F06807
:1021B00001430020C4E9000100F0F8FF0FB900F06E
:1021C0004CF8780707D0502080F31188BFF34F8F69
:1021D000BFF36F8FFEE73846BDE8F0818400002032
:1021E00010B5031F4FF080741C601B1F21F001010C
:1021F0001960191F024B0B60143940380A6010BD7A
:1022000049200008D0E9013201699A60D0E9012330
:102210005A604A68824201D182684A6000220261A3
:102220000868401E0860086870470000034B0360A0
:1022300003F15C0008608020106070476007002098
:10224000044B036003F15C0008604FF48070106081
:1022500070470000BC0900207047FEE738B50C4C01
:10226000A16941B90B4900910146002301220AA04E
:1022700000F0FEFFA06100F071FE02464FF0FF305B
:10228000009000230121A06901F03CF838BD000056
:1022900000000020C12200084C65645F74696D6510
:1022A0007200000008B54FF0FF3000900348002393
:1022B0001A460321806901F025F808BD00000020BE
:1022C0004FF400510148FEF712B900000010014020
:1022D00000F108014FF0FF32C0E90112C160016155
:1022E00000210160704700210161704730B50B6823
:1022F0005A1C02D000F1080202E0026904E0224602
:10230000546825689D42FAD953684B6099608A6089
:10231000516008610168491C016030BD42684A6033
:1023200093688B6093685960916008610168491CEB
:1023300001607047502080F31188BFF34F8FBFF3C7
:102340006F8F0A494868401C486001280CD1084832
:10235000006810F0FF0F07D0502080F31188BFF302
:102360004F8FBFF36F8FFEE7704700009C00002087
:1023700004ED00E00849486828B1401E486001D1DA
:1023800080F311887047502080F31188BFF34F8F7E
:10239000BFF36F8FFEE700009C00002070B500289F
:1023A00027D0144DA0F108046168E868014207D104
:1023B000502080F31188BFF34F8FBFF36F8FFEE77C
:1023C00022683AB1502080F31188BFF34F8FBFF3DA
:1023D0006F8FFEE78143616000F0C4F9606869684F
:1023E000084468602046FFF7C5FCBDE8704000F077
:1023F000DDBE70BD840000204FF0E02000210161AF
:10240000816105494FF47A720968B1FBF2F1491E06
:1024100041610721016170472C00002010B5FDF7D4
:10242000B7FE114910280ED300F1E02090F8F00318
:102430000A78904207D2502080F31188BFF34F8F63
:10244000BFF36F8FFEE709480068896800F4E06019
:10245000884207D9502080F31188BFF34F8FBFF314
:102460006F8FFEE710BD00009C0000200CED00E027
:1024700010B5084B002200BF53F832401CB1521C6B
:10248000082AF9D310BD43F8321003EBC2014860AB
:1024900010BD00004401002070B515460E460446EC
:1024A000FFF748FF94F944100020491C01D184F83B
:1024B000440094F94510491C01D184F84500FFF708
:1024C00059FFA06B28B92A46314604F1240000F0D8
:1024D000E9F82046BDE87040FFF7DCBD01B506A174
:1024E0000098FFF7C7F8084801239A1E694640691B
:1024F00000F072FA08BD00000A494E56414C4944AA
:102500002056414C55450A000000002001B54FF40B
:1025100000510848FDF7E6FF024607A10098FFF7C3
:10252000A9F80A4801239A1E6946406900F054FA46
:1025300008BD0000001001400A5468652053746112
:102540007465204C65643A2025640A000000002070
:1025500008B5094D094E4FF0FF340095012322467E
:102560006946706900F038FA002223461146104689
:1025700000F05EFDF1E700006C3300080000002071
:1025800008B50E4D0E4E4FF0FF3400222346114683
:10259000104600F04DFD0B20FFF7B2FD0090FFF755
:1025A000C9FE2878009930380870FFF7E3FE012350
:1025B00022466946306900F00FFAE6E7A8000020DD
:1025C00000000020174C8EB04FF0FF354FF4FA7624
:1025D0002A460DA9206900F00DFB0D98017801290C
:1025E0000FD0022910D0032911D0042913D00529B6
:1025F00014D00629ECD00029EAD06846FFF76EFF18
:10260000E6E700F0F1F8E3E700F0E6F8E0E730464F
:10261000FFF724FEDCE7FFF745FED9E76846FFF742
:1026200075FFD5E70000002008B50024084D661EA0
:10263000009432466946686900F0DCFA0098FDF7BC
:10264000E1FD82B2642303480099FEF75BFDEFE7EA
:1026500000000020BC00002002498A6A026049692B
:1026600041607047300000200149012048627047F6
:102670003000002010B50C4650B1094909681831E6
:10268000FFF734FE2046BDE810400121FFF772B984
:10269000502080F31188BFF34F8FBFF36F8FFEE799
:1026A0003000002070B514460D4668B10A4909682B
:1026B0001831FFF733FE0CB14FF0FF3521462846A5
:1026C000BDE87040FFF756B9502080F31188BFF382
:1026D0004F8FBFF36F8FFEE73000002030B587B01B
:1026E0000024039405AA04A903A80494FFF79EFDFF
:1026F000DDE903010094CDE90110002315A117487D
:10270000059A00F07AFB164D002868631FD000F090
:10271000C9FD012809D0401C19D1502080F311882F
:10272000BFF34F8FBFF36F8FFEE7502080F3118808
:10273000BFF34F8FBFF36F8F4FF0FF30286301203F
:10274000E8616C6107B0BDE8304000F055B807B0F3
:1027500030BD000049444C45000000000D1C00083D
:10276000300000200248816B491C816370470000E3
:1027700030000020164810B5816B11B10121416273
:1027800010BD002141628169124A01E0B9B1491EC0
:1027900001EB810352F82330002BF7D001EB8103CA
:1027A00002EB830202F1080453685B685360A342A2
:1027B00001D15B685360DA680260816110BD50200E
:1027C00080F31188BFF34F8FBFF36F8FFEE70000D8
:1027D0003000002084010020012251030148FDF750
:1027E0008EBE00000010014000224FF4005101484D
:1027F000FDF785BE001001401CB526490878019000
:10280000FF20087008788DF800009DF800009DF802
:10281000002000F0F000904207D0502080F3118893
:10282000BFF34F8FBFF36F8FFEE79DF800001A4B89
:1028300000F0500018700720986005E09DF8002017
:1028400052008DF80020401E9DF800201206F5D49D
:102850009860032807D0502080F31188BFF34F8F72
:10286000BFF36F8FFEE74FF44070986001980870D7
:102870000A48016841F470010160016841F070414B
:102880000160FFF7B9FD00205860FDF74BFC002008
:102890001CBD000000E400E09C00002020ED00E0F2
:1028A000F8B517460E46050014D0DEB105FB06F05C
:1028B0005030FFF725FC04000AD0002084F84600C1
:1028C00004F150023B46314628460094FFF7D0F908
:1028D0002046F8BD502080F31188BFF34F8FBFF31F
:1028E0006F8FFEE70020E3E738B5049D18B153B1C0
:1028F000CAB181B120E0502080F31188BFF34F8F1F
:10290000BFF36F8FFEE7502080F31188BFF34F8F26
:10291000BFF36F8FFEE7502080F31188BFF34F8F16
:10292000BFF36F8FFEE739B1502080F31188BFF3FA
:102930004F8FBFF36F8FFEE750241C46012384F8AE
:1029400046302B460094FFF793F9204638BD00002F
:1029500070B50D46040025D0FFF7ECFCD4E90F203C
:10296000216802FB001161600021A1632168A16060
:102970000A46D4E90F01401E00FB0121E160214617
:102980004FF0FF3001F8440F487004F110008DB192
:10299000FFF79EFC04F12400FFF79AFCFFF7EAFC26
:1029A000012070BD502080F31188BFF34F8FBFF31B
:1029B0006F8FFEE721690029F0D000F0BFFB0028EF
:1029C000ECD004494FF080500860BFF34F8FBFF345
:1029D0006F8FE3E704ED00E02DE9FF4782B01D466D
:1029E0008A464FF00008040003D0BAF1000F08D067
:1029F00011E0502080F31188BFF34F8FBFF36F8F2A
:102A0000FEE7206C38B1502080F31188BFF34F8F60
:102A1000BFF36F8FFEE7022D0AD1E06B012807D0CC
:102A2000502080F31188BFF34F8FBFF36F8FFEE705
:102A300000F086FA3F4F4FF000094FF0805648B93A
:102A4000049838B1502080F31188BFF34F8FBFF343
:102A50006F8FFEE7FFF76EFCA06BE16B884207D338
:102A6000022D05D00498D0B1B8F1000F1AD01EE0A5
:102A70002A4651462046FFF752F8616A19B104F11F
:102A8000240000F05BFB20B13E60BFF34F8FBFF32B
:102A90006F8FFFF76FFC012006B0BDE8F087FFF7EE
:102AA00069FC22E06846FFF7D7FD4FF00108FFF709
:102AB00061FCFFF757FEFFF73DFC94F94400401C12
:102AC00001D184F8449094F94500401C01D184F868
:102AD0004590FFF74FFC04A9684600F027F930B194
:102AE0002046FFF7D7FA00F061FB0020D4E7FFF79C
:102AF00021FCA06BE16B884213D1FFF73BFC04F192
:102B000010000499FFF7B6FD2046FFF7C3FA00F066
:102B10004DFB00289ED13E60BFF34F8FBFF36F8FF8
:102B200098E7FFF727FC2046FFF7B4FA00F03EFBDA
:102B300090E7000004ED00E02DE9F0471F469046C5
:102B40008946040003D0B9F1000F08D011E05020ED
:102B500080F31188BFF34F8FBFF36F8FFEE7206CB8
:102B600038B1502080F31188BFF34F8FBFF36F8FC0
:102B7000FEE7022F0AD1E06B012807D0502080F336
:102B80001188BFF34F8FBFF36F8FFEE7FFF746FC4F
:102B90005020EFF3118680F31188BFF34F8FBFF3FE
:102BA0006F8FA06BE16B884206D3022F04D0002008
:102BB00086F31188BDE8F08794F945503A464946B6
:102BC0002046FEF7ACFF681C04D06D1C84F845500D
:102BD0000120EDE7606A0028FAD004F1240000F03B
:102BE000ADFA0028F4D0B8F1000FF1D00121C8F8F7
:102BF0000010EDE72DE9F747002683B08A46040070
:102C000003D0BAF1000F08D011E0502080F31188F2
:102C1000BFF34F8FBFF36F8FFEE7206C38B15020AA
:102C200080F31188BFF34F8FBFF36F8FFEE700F083
:102C300087F9DFF8F4804FF000094FF0805748B96A
:102C4000059838B1502080F31188BFF34F8FBFF340
:102C50006F8FFEE7FFF76EFBA56BC5B151462046AF
:102C6000FEF74AFF6D1EA563206950B104F1100004
:102C700000F064FA28B1C8F80070BFF34F8FBFF3BB
:102C80006F8FFFF777FB012006B0BDE8F08705984E
:102C900008B11EB106E0FFF76DFB27E06846FFF7BD
:102CA000DBFC0126FFF766FBFFF75CFDFFF742FB4D
:102CB00094F94400401C01D184F8449094F94500F3
:102CC000401C01D184F84590FFF754FB05A96846E4
:102CD00000F02CF8002820460AD0FFF7DBF900F0BE
:102CE00065FA2046FFF788F80028B3D00020CBE72C
:102CF000FFF782F890B104F124000599FFF7BAFCC0
:102D00002046FFF7C7F900F051FA0028A2D1C8F811
:102D10000070BFF34F8FBFF36F8F9BE72046FFF725
:102D2000B9F900F043FA95E704ED00E02DE9F04130
:102D30000C46050011D0C4B1FFF7FCFA174B5A69D5
:102D40006E682068911B471C17D02F689B6A9F42B2
:102D500019D0964217D8012410E0502080F3118832
:102D6000BFF34F8FBFF36F8FFEE7502080F31188C2
:102D7000BFF34F8FBFF36F8FFEE70024FFF7FAFA20
:102D80002046BDE8F081884205D9401A20602846D7
:102D9000FFF762FCF1E700202060DCE73000002054
:102DA0002DE9FF5F8346DDE90E87994616468A4680
:102DB0009000FFF7A5F905001CD05C20FFF7A0F9F3
:102DC000040014D00020256384F85900CDE90240A6
:102DD000CDE900874B46324651465846FEF759FF2B
:102DE0002046FEF7F5FD012004B0BDE8F09F28461F
:102DF000FFF7D4FA4FF0FF30F6E7F0B585B0DDE924
:102E00000B640A9DA6B1DCB15C27009726630226FD
:102E100084F85960002604AFCDE90246CDE9005799
:102E2000FEF737FF2046FEF7D3FD049805B0F0BD4E
:102E3000502080F31188BFF34F8FBFF36F8FFEE7F1
:102E4000502080F31188BFF34F8FBFF36F8FFEE7E1
:102E50002DE9F0471F46DDF8209092460D4604000C
:102E60004FF001081AD0FFF7D9FA5020EFF311867E
:102E700080F31188BFF34F8FBFF36F8F0FB1606D79
:102E8000386094F85800022184F85810BAF1050F00
:102E900016D2DFE80AF0150B0E141200502080F352
:102EA0001188BFF34F8FBFF36F8FFEE7616D29432A
:102EB00001E0616D491C616502E0022803D065658F
:102EC000012803D030E04FF000082DE0A06A38B1AF
:102ED000502080F31188BFF34F8FBFF36F8FFEE751
:102EE000144DA86B18B104F1180113480DE0201D12
:102EF000FFF788F9E06AA969884200D9A8610F49FB
:102F000000EB800001EB8000211DFFF707FAE06A6B
:102F10002968C96A884207D90120B9F1000F02D097
:102F2000C9F8000000E0686286F311884046BDE8F9
:102F3000F0870000300000200C06002084010020F3
:102F40000548C16919B1806B18B100207047012094
:102F5000704702207047000030000020014840699F
:102F600070470000300000202DE9F0412E4C002772
:102F7000A06B40B1206A401C2062606A00B101274A
:102F80003846BDE8F0816669761C666113D16068D9
:102F9000006838B1502080F31188BFF34F8FBFF322
:102FA0006F8FFEE76068A1686160A060A06A401C46
:102FB000A062FEF7EFFF206BDFF87080864209D336
:102FC0006068006880B16068C068C56868688642EB
:102FD0000DD220632068C06A00EB800158F8210000
:102FE0000128CAD90127C8E74FF0FF30F1E7281DB3
:102FF000FFF708F9A86A18B105F11800FFF702F900
:10300000E86AA169884200D9A06100EB800108EB61
:103010008100291DFFF782F9E86A2168C96A8842A0
:10302000CED30127CCE7000030000020840100202F
:103030002DE9F0411E46154688460746FFF77AF906
:103040001C4C206890F85800022814D02068416D6C
:10305000B94341652168012081F858005EB1012122
:103060003046FEF787FC14494FF080500860BFF3EC
:103070004F8FBFF36F8FFFF77DF9FFF75BF915B146
:103080002068406D2860206890F85800022801D020
:10309000002505E02068416D21EA08014165012510
:1030A0002168002081F85800FFF764F92846BDE840
:1030B000F08100003000002004ED00E070B5040055
:1030C0004FF0000133D01B4D2868844207D05020B8
:1030D00080F31188BFF34F8FBFF36F8FFEE7206D32
:1030E00038B1401E2065E36CE26A9A421FD040B1BD
:1030F0001DE0502080F31188BFF34F8FBFF36F8F17
:10310000FEE7201DFFF77EF8E06CE062C0F13800BA
:10311000A061E06AA969884200D9A861064900EB6C
:10312000800001EB8000211DFFF7F8F8012108461F
:1031300070BD0000300000208401002070B5C06820
:10314000C46854B104F118000646FFF75BF8144D4B
:10315000A86B50B13146134815E0502080F3118818
:10316000BFF34F8FBFF36F8FFEE7201DFFF74AF8C5
:10317000E06AA969884200D9A8610B4900EB800088
:1031800001EB8000211DFFF7C9F8E06A2968C96AD0
:10319000884202D90120686270BD002070BD000025
:1031A000300000200C060020840100202DE9F047AB
:1031B0002C4D00242746A86B38B1FFF7BBF8A86B4D
:1031C000401EA863A86B40B146E0502080F31188F0
:1031D000BFF34F8FBFF36F8FFEE72969224E0120A7
:1031E000D1B3A6F5916980463068E0B1F068C46853
:1031F00004F11800FFF706F8201DFFF703F8E06A56
:10320000A969884200D9A86100EB800109EB81001F
:10321000211DFFF783F8E06A2968C96A8842E3D371
:10322000C5F82480E0E70CB1FEF7B4FE2C6A4CB17F
:103230004FEA0806FFF798FE00B16E62641EF9D1EE
:1032400000202862686A38B10849012738070860F9
:10325000BFF34F8FBFF36F8FFFF78CF83846BDE891
:10326000F0870000300000200C06002004ED00E094
:103270002DE9FC4781461E461746884630200A9DA8
:10328000FEF73EFF04000AD0CDE9005433463A462B
:1032900041464846FEF74BFD002084F82C002046AE
:1032A000BDE8FC8710B586B0FEF7FAFB114CA068AC
:1032B000B8B100200390049005AA04A903A8FEF762
:1032C000BFFFDDE9032102208DE8070000230AA1EA
:1032D0000B48059AFFF791FDE06010B106B00120A0
:1032E00010BD502080F31188BFF34F8FBFF36F8F55
:1032F000FEE700006C000020546D722053766300DE
:10330000712000082DE9FF411E46134602000A9D68
:103310004FF0000016D0144CA768002F0FD0CDE955
:1033200000130292062917DAFFF70AFE02284FF06F
:1033300000030FD000226946A068FFF74DFB04B0E0
:10334000BDE8F081502080F31188BFF34F8FBFF3A9
:103350006F8FFEE72A46EEE700233246694638467D
:10336000FFF7EAFBEBE700006C000020090A0A0AFD
:103370004C45445F4F4E202020202020202020203C
:10338000202020202D2D2D2D2D2D2D2D3E203109BD
:1033900009090A4C45445F4F464620202020202042
:1033A000202020202020202D2D2D2D2D2D2D2D3E97
:1033B00020320909090A4C45445F544F4F474C4598
:1033C000202020202020202020202D2D2D2D2D2DAF
:1033D0002D2D3E20330909090A4C45445F544F47BF
:1033E000474C455F4F46462020202020202D2D2D84
:1033F0002D2D2D2D2D3E20340909090A5245414419
:103400005F4C45445F5354415455532020202020A5
:103410002D2D2D2D2D2D2D2D3E20350909090A523A
:1034200054435F5052494E545F4441544554494DB2
:103430004520202D2D2D2D2D2D2D2D3E20360909F9
:10344000090A455849545F4150502020202020202F
:103450002020202020202D2D2D2D2D2D2D2D3E20E6
:10346000300909090A5479706520796F7572206FE7
:103470007074696F6E20686572653A2020000000E4
:10348000BC34000800000000000000000000000044
:103490000000000000020000160000000000000014
:1034A0000000000000000000000000000102030412
:1034B0000607080900000000010203045461736B51
:1034C0005F310000E434000800000020A800000084
:1034D000BC1600088C350008A800002070250000EC
:1034E000CC160008000000000000000000000000F2
:1034F00000000000000000000000000000000000CC
:1035000000000000010000001000000000000000AA
:103510000024F40000000000000000000000000093
:10352000000000000000000000000000000000009B
:10353000000000000000000000000000000000008B
:10354000000000000000000000000000000000007B
:10355000000000000000000000000000000000006B
:10356000000000000000000000000000000000005B
:10357000000000000000000000000000000000004B
:0C35800000000000AAAAAAAA0000000097
:04000005080000ED02
:00000001FF
