:020000040800F2
:10000000F01D002099010008E30F0008930E00087E
:10001000E10F000839020008F91100080000000093
:1000200000000000000000000000000001010008C6
:100030003B0200080000000045010008E50F000831
:10004000B3010008B3010008B3010008B3010008C0
:10005000B3010008B3010008B3010008B3010008B0
:10006000B3010008B3010008B3010008B3010008A0
:10007000B3010008B3010008B3010008B301000890
:10008000B3010008B3010008B3010008B301000880
:10009000B3010008B3010008B3010008B301000870
:1000A000B3010008B3010008B3010008B301000860
:1000B000B301000865100008B3010008B30100088F
:1000C000B3010008B3010008B3010008B301000840
:1000D000B3010008B3010008B3010008B301000830
:1000E000B3010008B3010008B3010008DFF80CD029
:1000F00000F090F80048004743130008F01D00206E
:10010000224B19680868B0E8F00F80F30988BFF344
:100110006F8F4FF0000080F311884EF00D0E704786
:100120000000000006480068006880F3088862B696
:1001300061B6BFF34F8FBFF36F8F00DF00BF00BF0B
:1001400008ED00E0EFF30980BFF36F8F0F4B1A68E3
:1001500020E9F00F106008B54FF0500080F31188CF
:10016000BFF34F8FBFF36F8F02F038F84FF00000EE
:1001700080F31188BDE8084019680868B0E8F00FFE
:1001800080F30988BFF36F8F704700BF1C00002009
:10019000EFF3058070470000064880470648004797
:1001A000FEE7FEE7FEE7FEE7FEE7FEE7FEE7FEE727
:1001B000FEE7FEE761100008ED00000840EA0103D9
:1001C0009B0703D009E008C9121F08C0042AFAD20D
:1001D00003E011F8013B00F8013B521EF9D27047D1
:1001E000D2B201E000F8012B491EFBD27047002279
:1001F000F6E710B513460A4604461946FFF7F0FF26
:10020000204610BD421C10F8011B0029FBD1801AAA
:1002100070470000064C074D06E0E06840F001031F
:1002200094E8070098471034AC42F6D3FFF762FF1A
:100230004C2E00086C2E0008FEE7704772B6FEE7F1
:100240002DE9F84FDFF8B891002409F1040A0AF10A
:10025000040B23460F270BF1040EC9E00125A5402E
:100260002A40AA427DD1674ED1F804C0ACEB060803
:10027000B44532D014DCBCF1030F3AD009DCBCF138
:10028000000F2AD0BCF1010F1CD0BCF1020F31D1FC
:100290001DE0BCF1110F17D0BCF1120F2AD119E0EB
:1002A000B8F5881F19D006DCB8F5803F15D0B8F531
:1002B000801F1FD111E0B8F5001F0ED0B8F5041F44
:1002C00018D10AE0CB6815E0CB681B1D12E0CB68A3
:1002D00008330FE0CB680C330CE08B682BB1012B9B
:1002E0004FF0080303D0456104E0042302E00561F8
:1002F00000E00023FF2A01D8064601E000F10406D1
:100300004FEA840501D9A5F12005D6F8008007FA47
:1003100005FC28EA0C0803FA05F548EA0508C6F8C2
:1003200000804D68ED0062D5374DAE6946F001069C
:10033000AE61AD6924F0030605F001050095334D6B
:1003400006EB050CDCF80850A607360F07FA06F88E
:1003500025EA0805DFF8B880404503D14FF00008D2
:1003600017E044E0DFF8AC80404502D14FF00108CF
:100370000FE0DFF8A480404502D14FF0020808E00A
:10038000DFF89880404502D14FF0030801E04FF0BC
:10039000040808FA06F848EA0508CCF808804D6811
:1003A000D9F80060ED034D4601D5164300E09643B1
:1003B0002E604D68DAF80060AD03554601D516434E
:1003C00000E096432E604D68DBF80060ED025D466C
:1003D00001D5164300E096432E604D68DEF80060BC
:1003E000AD02754601D5164300E096432E60641CAD
:1003F0000D682A46E5407FF431AFBDE8F88F000074
:1004000000040140000011100010024000000140F3
:1004100000080140000C01400010014000140140A0
:1004200001488068704700000C0000200248816885
:1004300002781144816070470C000020074810B515
:10044000016841F010010160032000F095F80020E0
:1004500000F006F800F03EF8002010BD0020024039
:1004600000B5014687B000221D2000F065F81D2070
:1004700000F054F81348C16941F00201C161C0693C
:1004800005A900F002000690684600F01DF900F092
:100490003BF90D490D4AB0FBF1F10D48491E0260D0
:1004A000416040F2E7320021C0E90321816000F0A1
:1004B00013FB10B1012007B000BD054800F03AFB66
:1004C000F9E700000010024040420F000004004025
:1004D000D40000200F4808B5816941F00101816115
:1004E000816901F001010091C16941F08051C16150
:1004F000C069002200F0805000900F21901E00F093
:100500001BF80548416821F0E06141F0007141604D
:1005100008BD00000010024000000140002809DB77
:1005200000F01F02012191404009800000F1E0200D
:10053000C0F8001170470000F0B40E4B1B680C4669
:10054000C3F30223C3F10705042D00D90425191DA7
:10055000072901D2002300E0DB1E012606FA05F17F
:10056000491E214099409E40761E16403143F0BC02
:1005700000F058BE0CED00E0064900F007020868E4
:100580004FF6FF03184040EA0220034A1043086078
:10059000704700000CED00E00000FA052DE9F0477F
:1005A0000F46050061D0434E306800F00700B842A6
:1005B00009D2306820F0070038433060306800F01E
:1005C0000700B84251D128683B4C810712D540073B
:1005D00003D5606840F4E06060602878000703D5C8
:1005E000606840F4605060606068A96820F0F000C6
:1005F000084360602878C00728D06868012810D0B8
:100600002168022810D0890700292EDA616821F0BC
:10061000030101436160FFF703FF804641F288391F
:100620000DE021688903EFE78901EDE7FFF7F8FEA8
:10063000A0EB0801494502D90320BDE8F0876068B6
:10064000696800F00C00B0EB810FEFD1306800F06A
:100650000700B8420BD9306820F0070038433060FB
:10066000306800F00700B84201D00120E5E72878A3
:10067000400705D56068E96820F4E06008436060E1
:100680002878000706D56068296920F4605040EAA0
:10069000C100606000F058F86168084AC1F30311B6
:1006A000515CC8400649086006480068FFF7D8FE5C
:1006B0000020C2E700200240001002402C2E00085B
:1006C00018000020100000200F2202600C4A53681E
:1006D00003F003034360536803F0F003836053683F
:1006E00003F4E063C36052684FF4E06303EAD202AC
:1006F00002610448006800F00700086070470000CD
:100700000010024000200240044805490068496882
:10071000044AC1F30221515CC84070471800002010
:10072000001002403C2E0008044805490068496852
:10073000044AC1F3C221515CC84070471800002030
:10074000001002403C2E000812A185B00FC98DE8B0
:100750000F0014A0144A006804905168134801F077
:100760000C03042B10D0082B0ED1C1F38343C90313
:100770001DF803000AD5516804AAC1F34041515C39
:100780000A4A5043B0FBF1F005B0704708494843AE
:10079000FAE7000002030405060708090A0B0C0D1E
:1007A0000E0F1010010200000010024000127A002B
:1007B00000093D002DE9F84F040070D02078C04DAD
:1007C000C00749D06868C0F38100012807D0686875
:1007D000C0F38100022809D16868C00306D52868E3
:1007E000800339D560680028E7D035E06068B0F54F
:1007F000803F0BD010B1B0F5A02F11D0286820F4A5
:1008000080302860286820F4802002E0286840F4C6
:1008100080302860606890B1FFF702FE06460AE06B
:10082000286840F480202860F0E700BFFFF7F8FD5B
:10083000801B642873D828688003F7D50CE0FFF785
:10084000EFFD064605E000BFFFF7EAFD801B6428C8
:10085000F0D828688003F7D420789A4E80074FF0AC
:1008600001094FF0000839D5686810F00C0F07D067
:100870006868C0F38100022809D16868C00306D403
:100880002868800714D52069012808D110E0206964
:10089000B0B1C6F80090FFF7C3FD074605E00AE1D6
:1008A000FFF7BEFDC01B0228C4D828688007F7D513
:1008B0002868616920F0F80040EAC10028600DE076
:1008C000C6F80080FFF7ACFD074604E0FFF7A8FD7F
:1008D000C01B022823D828688007F7D42078000797
:1008E0002CD57948A169D9B1C0F80090FFF798FDDF
:1008F000074604E0FFF794FDC01B02280FD8686A82
:100900008007F7D571484FF4FA510068B0FBF1F059
:10091000009000BF0098411E0091FAD20EE080E0E6
:10092000C0F80080FFF77CFD074604E0FFF778FD84
:10093000C01B022875D8686A8007F7D42078400762
:1009400060D5E8690027C00008D4E86940F080500D
:10095000E861E869012700F0805000905C48016878
:10096000C90513D40168834641F480710160FFF723
:1009700057FD824606E000BFFFF752FDA0EB0A00DC
:1009800064284ED8DBF80000C005F5D5E0680128E2
:100990000AD008B1052813D0286A20F00100286287
:1009A000286A20F0040002E0286A40F00100286272
:1009B000E06841F2883B98B1FFF732FD82460BE0D8
:1009C000286A40F004002862EEE700BFFFF728FD28
:1009D000A0EB0A0159455AD8286A8007F6D50CE0E1
:1009E000FFF71EFD824605E0FFF71AFDA0EB0A01A6
:1009F00059454CD8286A8007F6D41FB1E86920F021
:100A00008050E861E06988B36968C1F38101022917
:100A100044D00228C6F8608004D0FFF701FD0446E8
:100A200038E034E0FFF7FCFC074604E0FFF7F8FC91
:100A3000C01B02282BD828688001F7D4206AB0F5A3
:100A4000803F05D16868A16820F4003008436860E1
:100A5000D4E908010843696821F474110843686007
:100A6000C6F86090FFF7DCFC044606E025E000BF16
:100A7000FFF7D6FC001B022809D828688001F7D5AB
:100A80001BE000BFFFF7CCFC001B022802D90320AB
:100A9000BDE8F88F28688001F4D40EE00128F7D073
:100AA0006868226A00F48031914204D1616A00F4DE
:100AB0007010884201D00120EAE70020E8E700003A
:100AC0000010024000004242800442421800002010
:100AD000007000407047704710B5040003D094F8D0
:100AE0003D0010B107E0012010BD002084F83C005B
:100AF000204600F01EF8022084F83D00211D2068E9
:100B000000F0B6FA012084F8460084F83E0084F82C
:100B10003F0084F8400084F8410084F8420084F8E3
:100B2000430084F8440084F8450084F83D00002028
:100B300010BD704790F83D10012901D00120704789
:100B4000022180F83D100168CA6842F00102CA60C3
:100B500000680B49884208D0B0F1804F05D00949A0
:100B6000884202D00849884204D1816801F0070117
:100B7000062903D0016841F001010160002070479F
:100B8000002C01400004004000080040704770B590
:100B90000446006801694FF00005C943890715D470
:100BA000C168C943890711D4E91E0161012020777A
:100BB000206880698007204602D0FFF7E7FF04E045
:100BC00000F098F8204600F096F825772068016933
:100BD000C943490717D4C168C943490713D46FF003
:100BE00004010161022020772068806910F4407FB1
:100BF000204602D0FFF7CAFF04E000F07BF8204651
:100C000000F079F8257720680169C943090716D4EF
:100C1000C168C943090712D46FF0080101610420BB
:100C200020772068C0698007204602D0FFF7AEFF1A
:100C300004E000F05FF8204600F05DF825772068BA
:100C40000169C943C90617D4C168C943C90613D489
:100C50006FF010010161082020772068C06910F44E
:100C6000407F204602D0FFF791FF04E000F042F8F9
:100C7000204600F040F8257720680169C943C9077C
:100C800008D1C168C943C90704D1891E0161204642
:100C900000F032F820680169C943090609D4C16827
:100CA000C943090605D46FF0800101612046FFF7B2
:100CB00011FF20680169C943490609D4C168C943C5
:100CC000490605D46FF040010161204600F01EF88E
:100CD00020680169C94389060BD4C168C9438906E4
:100CE00007D46FF0200101612046BDE87040FFF796
:100CF000F2BE70BD7047704700680349884201D159
:100D0000FFF794BB7047000000040040704770B5C7
:100D1000040004D094F83900002510B106E0012049
:100D200070BD84F83850204600F022F8242084F862
:100D300039002068C16821F40051C160204600F0EC
:100D4000CDF92068016921F4904101612068416971
:100D500021F02A0141612068C16841F40051C1605D
:100D6000E563202084F8390084F83A00002070BD43
:100D700030B585B000240094019402940394006877
:100D80001449884223D11448C16941F40031C1613A
:100D9000C16901F400310491816941F0040181616C
:100DA00080690E4D00F004000490042000900220A1
:100DB00001900320039069462846FFF741FA082076
:100DC000CDE90004694628460294FFF739FA05B0D8
:100DD00030BD000000440040001002400008014007
:100DE0002DE9F843044690F839001F4616460D4693
:100DF00020284CD1C5B1BEB194F83800012846D0A6
:100E0000012084F838004FF00008C4F83C8021200D
:100E100084F83900FFF704FBA6848146E684A068C5
:100E2000B0F5805F03D004E00120BDE8F8832069BD
:100E300028B12E465FF0000584F838800EE00026C9
:100E4000FAE78021204600F0A5F9A0B9AEB116F866
:100E5000010B21684860E08C401EE084E08C4B462A
:100E60004FF0000200970028EBD14FF040012046E0
:100E700000F090F930B10320D7E735F8020BC0F34A
:100E80000800E6E7202084F839000020CDE70220A2
:100E9000CBE7FEE71CB5012001F026FA0A4C00283A
:100EA00060600FD0094A0AA1104800F0AFFAA060B4
:100EB00021461620CDE900010DA3802213A10B4885
:100EC00001F058FD1CBD000000000020082E0008A5
:100ED0005461736B20312D2D2D2D2D2D2D2D2D2D6C
:100EE0002D2D2D2D2D2D2D2D2D2D0000DD1F00083C
:100EF0005461736B20323D3D3D3D3D3D3D3D3D3DAB
:100F00003D3D3D3D3D3D3D3D3D3D00005461736BEC
:100F10005F32000010B586B00020029003901E489A
:100F2000816941F010018161816901F01001049132
:100F3000816941F020018161816901F02001049102
:100F4000816941F004018161816901F0040104912A
:100F5000816941F0080181618069032400F0080083
:100F600004904FF40050CDE9000469460B48FFF7A8
:100F700067F949F6F370CDE9000469460848FFF7C0
:100F80005FF94FF6FF70CDE9000469460548FFF7A9
:100F900057F906B010BD00000010024000100140DB
:100FA00000080140000C01400C4810B50A490160DE
:100FB0004FF4E1314160002181600C22C160C0E941
:100FC00004128161C161FFF7A2FE002803D0BDE8D1
:100FD0001040FFF733B910BD0044004094000020DA
:100FE000FEE7FEE710B5502080F31188BFF34F8F66
:100FF000BFF36F8F01F02AFD18B104494FF0805004
:101000000860002080F3118810BD000004ED00E0AE
:1010100010B590B028216846FFF7E9F814210AA816
:10102000FFF7E5F802200090012004901020002432
:10103000059007946846FFF7BDFB08B172B6FEE75E
:101040000F20CDE90A040C940D9400210AA80E94F7
:10105000FFF7A4FA002801D072B6FEE710B010BD69
:10106000704700000148FFF792BD0000D400002047
:10107000F0B50268164B174C174D4FF08047984259
:1010800005D0B84203D0A04201D0A84203D122F03B
:1010900070064A683243984205D0B84203D0A04255
:1010A00001D0A84203D122F44074CA6822434C699B
:1010B00022F08002224302608A68C2620A68826269
:1010C000984201D10969016301214161F0BD00002D
:1010D000002C0140000400400008004070B50446A8
:1010E00000680169E26821F44051114301612169FE
:1010F000A0680843616908432168CA6841F20C632B
:101100009A430243CA6020684169A26921F4407190
:10111000114341611E492068884202D1FFF704FB58
:1011200001E0FFF7F1FA00EBC00101EB001260688B
:1011300064218000B2FBF0F3B3FBF1F36FF018060B
:101140007343B2FBF0F5B2FBF0F605EB83053223F7
:1011500003EB0515B5FBF1F5B6FBF1F605F0F0056F
:1011600005EB0615B2FBF0F6B2FBF0F0B0FBF1F0C8
:101170006FF01802504306EB800003EB0010B0FB49
:10118000F1F0216800F00F002844886070BD000075
:10119000003801402DE9F041984617460E460446B6
:1011A000069D1DE0681C1BD02DB1FFF739F9A0EB9F
:1011B0000800A84214D92068C16821F4D071C16028
:1011C0002068416921F001014161202084F8390043
:1011D00084F83A00002084F838000320BDE8F0814C
:1011E0002068006836EA000004D00020B842D9D058
:1011F0000020F3E70120F9E7FEE700000FB4084BF9
:1012000010B504A902AA039800F02BF8044602A91D
:10121000002000F091F8204610BC5DF814FB00009F
:10122000391300080907090E002804DB00F1E0204B
:1012300080F80014704700F00F0000F1E02080F803
:10124000141D704702E008C8121F08C1002AFAD115
:1012500070477047002001E001C1121F002AFBD136
:1012600070472DE9F84F9946924688460546002773
:1012700006E025280AD051464A4690476D1C7F1C3F
:1012800028780028F5D13846BDE8F88F002315F8F6
:10129000011F18462E2915D115F8011F04232A29EC
:1012A0000DD06FF02F022978A1F13004092C09D854
:1012B00000EB800002EB400008446D1CF3E758F897
:1012C000040B6D1C2A78002ADDD0632A07D0732A0C
:1012D0000FD0104651464A4690477F1C2AE018F826
:1012E000042B8DF8002000218DF801106E4601219D
:1012F00003E058F8046B4FF0FF315A074FF0000439
:1013000001D409E0641C84420BDA8C42FADB325DC2
:10131000002AF7D105E0641C8C42FCDB305D00281C
:10132000F9D1274404E016F8010B51464A4690478C
:10133000641EF8D26D1CA3E70A68531C0B60107082
:101340007047FFF77BF8FFF763FEFFF7E3FDFFF75A
:101350002BFE00F01FF8FFF79DFD00F037F8FEE7C9
:1013600010B5EFF3058149B9EFF3108131B90849A0
:101370000968022905D1EFF3118111B16FF005045D
:1013800003E0002408B100F003FE204610BD000079
:101390006C000020EFF3058058B9EFF3108040B9DE
:1013A00009490868022801D030B109E0EFF3118043
:1013B00030B16FF0050070470120086000207047D1
:1013C0004FF0FF30704700006C00002010B5EFF3C5
:1013D000058060B9EFF3108048B90B49086802280E
:1013E00002D0012806D00BE0EFF3118040B16FF07E
:1013F000050010BD0220086000F0A4FE002010BD12
:101400004FF0FF3010BD00006C000020F0B585B03B
:101410004FEA01034FF00004EFF305810394A1BBF1
:10142000EFF3108189BB21490968022902D1EFF34A
:10143000118151BB48B3802618218DF8104004ADAE
:1014400042B3176807B13D4697691FB139467F1E01
:10145000382F02D21779FF0702D0002005B0F0BD67
:10146000576907B1BE08D2F808C0BCF1000F0DD013
:10147000D4685C2C18D312693AB137B18DE80610E4
:101480003246294601F0A3FA03900DE0D7685FB910
:1014900012694AB903AACDE90012B2B2294601F095
:1014A00069FA012800D003940398D7E76C00002064
:1014B0002DE9F041134C0F46054666692068001D72
:1014C00000F034FC681C07D137B12168BDE8F04159
:1014D0000D48091D00F07CBC20683544B5424560CC
:1014E000216805D2A068BDE8F041091D00F058BC94
:1014F0006068091D00F054FC206B854200D2256312
:10150000BDE8F0811C0000200C0600202DE9F04110
:10151000054600F069FC2D4C2069401C20612068C4
:101520002B4F10B1E06930B32BE025602069012812
:1015300027D1002606EB860007EB800000F022FC96
:10154000761C382EF6D3234800F01CFC21481430BA
:1015500000F018FC1F48283000F014FC1D483C30F7
:1015600000F010FC1B48503000F00CFC1948606083
:101570001430A06005E02068E96AC06A884200D89B
:101580002560E06A401CE0626864E86AA1698842FC
:1015900000D9A06100EB800007EB8000291D00F05E
:1015A00017FC00F041FCE06900280CD02068E96AD3
:1015B000C06A884207D208494FF080500860BFF3E4
:1015C0004F8FBFF36F8FBDE8F08100001C0000203B
:1015D0005C010020BC05002004ED00E038B500F0FF
:1015E00003FC104CA068C8B90F4800F0CBFB0E48B4
:1015F000143000F0C7FB0C482060143060600A4BC8
:1016000000202833009003F1500210210A2000F03E
:101610009AFEA06010B105A100F084FCBDE838403E
:1016200000F002BC5800002020060020546D7251CA
:101630000000000030B4026C0B46002A0BD0C168D9
:101640001144C1604468A14201D30168C16030BC4B
:101650001846FEF7B3BD30BC70472DE9F041856BED
:10166000174604460026026C82B1C7B1E068FEF757
:10167000A5FDE168206C091AE1602268914202D25E
:101680006168081AE060022F16D017E02068A8B938
:10169000606801F03FFA0646002060600EE0A06836
:1016A000FEF78CFD216CA0680844A0606168884248
:1016B00004D32068A06001E005B16D1E6D1CA56318
:1016C0003046BDE8F08110B5044690F8590058B195
:1016D00001280CD002280FD0502080F31188BFF3CE
:1016E0004F8FBFF36F8FFEE7206B00F0B1FB2046FA
:1016F000BDE8104000F0ACBB10BD000010484FF436
:101700004061420706D0C01D0D4920F00700411A74
:10171000C1F540610B4A00230144C2E900030839C6
:10172000103A21F0070111604B600B600B1AC0E901
:10173000001393604FF000405360D060704700008A
:10174000F00D002080000020154E164CA6F29C479C
:101750004FF08058DFF8509012E000BF00F044FBDB
:10176000F068C568281D00F0E1FA2069401E20617C
:10177000E068401EE06000F057FB2846FFF7A3FF3B
:10178000E0680028EAD13868012805D9C9F8008046
:10179000BFF34F8FBFF36F8F00F0F2FAF0E7000056
:1017A000F80500201C00002004ED00E0002807D010
:1017B0000021416001600B460A46C16000F03ABE5C
:1017C0007047000070B51D46049C51B1C4F800205C
:1017D000C4E90F010121204600F0E8FD84F84C50D7
:1017E00070BD2460F4E72DE9F0470E46DDE9098479
:1017F0001746824691009946089DA522206BFEF768
:10180000EFFC6FF00301206B01EB8701084420F02F
:101810000707780707D0502080F31188BFF34F8F58
:10182000BFF36F8FFEE72218315C82F83410315C11
:1018300011B1401C1028F6D3002684F84360382DDF
:1018400000D33725E562C4E91356201D00F0A5FA40
:1018500004F1180000F0A1FA2461C5F138006462B7
:10186000A061666584F858604A465146384600F0E3
:101870004BFA2060B8F1000F01D0C8F80040BDE875
:10188000F087000030B5114900E011460A68824235
:10189000FBD34B685C18844203D14068184448600D
:1018A000084643681C18944209D1084C103C24682F
:1018B000A24209D052681A4442600A681268026063
:1018C000814200D0086030BD0460F9E7800000204C
:1018D00070B5002441600B4D0061914206D8D11AC9
:1018E0008269914206D2011D686807E09A4203D2DC
:1018F000994201D3012403E0011D286800F050FA49
:10190000204670BD5800002010B5044600F06CFA67
:10191000A06B28B15FF0000400F086FA204610BDED
:101920000124F9E730B589B0304D55E0049800281E
:1019300006DADDE90601059A9047049800284BDB9A
:10194000069C606910B1201D00F0F0F902A800F0BB
:10195000B9F8024604980A283ED2DFE800F00505EF
:10196000053D263705053D260598A1690346014436
:101970002046FFF7ADFF00B3616A20468847E06963
:10198000012829D1002000900598A1690023421860
:101990001946204601F004FA78B9502080F31188E6
:1019A000BFF34F8FBFF36F8FFEE70598A06128B19B
:1019B000811813462046FFF78BFF0DE0502080F37F
:1019C0001188BFF34F8FBFF36F8FFEE794F82C00A1
:1019D00010B9204600F03CFA002204A9A86800F0E3
:1019E00037FE0028A2D109B030BD00005800002009
:1019F0002DE9FC410F46054600F0E8FB01A800F088
:101A000061F80446019818B101F038F9BDE8FC818D
:101A1000224EAFB170680068A8B30027291B3A4670
:101A2000B06800F093FA01F029F90028EED11C49C2
:101A30004FF080500860BFF34F8FBFF36F8FE5E723
:101A4000A542EBD801F01AF930682746C068C4688F
:101A5000201D00F06BF9E069012810D1A0692B4628
:101A600041193A462046FFF733FF40B100200346B4
:101A7000014600902A46204601F092F920B1616AA1
:101A800020468847C2E707E0502080F31188BFF363
:101A90004F8FBFF36F8FFEE70127BFE7580000208D
:101AA00004ED00E006484168096829B14168C96849
:101AB000C9684968016370474FF0FF31FAE70000D9
:101AC0001C00002070B5054600F0BAFF064E044623
:101AD0003069844203D200F009F8012000E00020C0
:101AE00028602046346170BD58000020F8B5194DBB
:101AF0001FE0C068C4680668201D00F017F9616A1D
:101B000020468847E069012813D1A0693044B042DB
:101B100006D924616060211D286800F041F908E0C1
:101B200000200346014600903246204601F038F975
:101B300038B1286801680029DBD16968C5E900105F
:101B4000F8BD502080F31188BFF34F8FBFF36F8F24
:101B5000FEE700005800002008484068401C4FF095
:101B6000500080F3118804D0BFF34F8FBFF36F8F05
:101B7000FEE7BFF34F8FBFF36F8FFEE788000020B3
:101B8000074C2068016841B1C0680021D0F800000E
:101B9000FFF72EFFFFF7C6FEF3E701210020F7E76E
:101BA000580000202DE9F041044600F01DF994F999
:101BB000455004F1240609E0606A48B1304601F05E
:101BC00025F808B100F03CFA6D1E6DB2002DF3DC73
:101BD0004FF0FF3684F8456000F026F900F004F974
:101BE00094F9445004F1100709E0206948B13846DF
:101BF00001F00CF808B100F023FA6D1E6DB2002D53
:101C0000F3DC84F84460BDE8F04100F00DB9000059
:101C10002DE9F0410546002700F0D8FA334E306830
:101C200008B9FFF76BFDF068054216D1ADB1083574
:101C300068070ED005F00700C0F1080005446807EA
:101C400007D0502080F31188BFF34F8FBFF36F8F01
:101C5000FEE715B17068854202D901F00FF836E051
:101C60002248103001460C6801E020460C466168AD
:101C7000A94202D221680029F7D131688C42ECD008
:101C800007682168016060680837411B10290ED978
:101C90006019420707D0502080F31188BFF34F8F9F
:101CA000BFF36F8FFEE741606560FFF7EBFD616892
:101CB0007068401A7060B268904200D2B060F068FC
:101CC00001430020C4E9000100F0D8FF0FB900F083
:101CD00058F8780707D0502080F31188BFF34F8F52
:101CE000BFF36F8FFEE73846BDE8F081700000203B
:101CF0000449086818B10868026D521C026508683A
:101D0000704700001C00002010B5031F4FF08074C6
:101D10001C601B1F21F001011960191F024B0B6091
:101D2000143940380A6010BD591B0008D0E901324F
:101D300001699A60D0E901235A604A68824201D160
:101D400082684A60002202610868401E08600868D4
:101D500070470000034B036003F15C0008608020C3
:101D60001060704738070020044B036003F15C00EB
:101D700008604FF4807010607047000094090020E4
:101D8000FEE7FEE700F108014FF0FF32C0E9011263
:101D9000C16001610021016070470021016170474D
:101DA00030B50B685A1C02D000F1080202E002694B
:101DB00004E02246546825689D42FAD953684B6076
:101DC00099608A60516008610168491C016030BDFA
:101DD00042684A6093688B609368596091600861BB
:101DE0000168491C01607047502080F31188BFF3DF
:101DF0004F8FBFF36F8F0A494868401C4860012825
:101E00000CD10848006810F0FF0F07D0502080F375
:101E10001188BFF34F8FBFF36F8FFEE7704700004D
:101E20008800002004ED00E00849486828B1401E01
:101E3000486001D180F311887047502080F31188E9
:101E4000BFF34F8FBFF36F8FFEE7000088000020C5
:101E500070B5002827D0144DA0F108046168E86827
:101E6000014207D1502080F31188BFF34F8FBFF399
:101E70006F8FFEE722683AB1502080F31188BFF3DC
:101E80004F8FBFF36F8FFEE78143616000F09EF9D3
:101E900060686968084468602046FFF7F3FCBDE8A5
:101EA000704000F0EBBE70BD700000204FF0E020ED
:101EB00000210161816105494FF47A720968B1FB23
:101EC000F2F1491E416107210161704718000020AD
:101ED00010B5FEF75DF9114910280ED300F1E0208E
:101EE00090F8F0030A78904207D2502080F31188CE
:101EF000BFF34F8FBFF36F8FFEE709480068896813
:101F000000F4E060884207D9502080F31188BFF3C5
:101F10004F8FBFF36F8FFEE710BD000088000020D9
:101F20000CED00E010B5084B002200BF53F8324022
:101F30001CB1521C082AF9D310BD43F8321003EB30
:101F4000C201486010BD00001C01002070B515469C
:101F50000E460446FFF748FF94F944100020491C40
:101F600001D184F8440094F94510491C01D184F84A
:101F70004500FFF759FFA06B28B92A46314604F106
:101F8000240000F07BF82046BDE87040FFF70ABE51
:101F900010B5020014D00F48806B38B1502080F388
:101FA0001188BFF34F8FBFF36F8FFEE700F00EF97C
:101FB00000211046FFF77CFA00F060FE002807D1F0
:101FC00005494FF080500860BFF34F8FBFF36F8F0C
:101FD00010BD00001C00002004ED00E08AB0114C90
:101FE00007464FF0FF354FF47A762946606800F0D7
:101FF000CBFB98B13A460CA16846FFF7FFF868465C
:10200000FEF700F982B2642369460848FEF7E8FE4D
:1020100000231A461946606800F00CFA3046FFF7B4
:102020009FF9E2E70000002025730A0094000020D9
:1020300002498A6A02604969416070471C000020B9
:1020400001490120486270471C00002010B50C4671
:1020500050B1094909681831FFF7A2FE2046BDE8D2
:1020600010400121FFF724BA502080F31188BFF3FC
:102070004F8FBFF36F8FFEE71C00002070B5144632
:102080000D4668B10A4909681831FFF7A1FE0CB185
:102090004FF0FF3521462846BDE87040FFF708BAEB
:1020A000502080F31188BFF34F8FBFF36F8FFEE78F
:1020B0001C00002070B504003ED0226DA2B1E06C7F
:1020C000884200D30146E06A884235D0012A33D1E4
:1020D0001A4D2A6894420FD1502080F31188BFF323
:1020E0004F8FBFF36F8FFEE7502080F31188BFF34F
:1020F0004F8FBFF36F8FFEE7E162A269002A02DB18
:10210000C1F13801A1610E4E00EB8000616906EB60
:102110008000814210D1201DFFF708FEE06AA96906
:10212000884200D9A86100EB800006EB8000211DE9
:10213000BDE87040FFF74CBE70BD00001C000020E1
:102140005C01002030B587B00024039405AA04A9DF
:1021500003A80494FFF7FEFDDDE903010094CDE937
:102160000110002315A11748059A00F030FC164D08
:10217000002868631FD000F0E3FD012809D0401C4F
:1021800019D1502080F31188BFF34F8FBFF36F8FA9
:10219000FEE7502080F31188BFF34F8FBFF36F8F9E
:1021A0004FF0FF3028630120E8616C6107B0BDE8A3
:1021B000304000F045B807B030BD000049444C4500
:1021C00000000000491700081C0000200248816B35
:1021D000491C8163704700001C000020164810B5A0
:1021E000816B11B10121416210BD00214162816901
:1021F000124A01E0B9B1491E01EB810352F82330C4
:10220000002BF7D001EB810302EB830202F10804FB
:1022100053685B685360A34201D15B685360DA681E
:102220000260816110BD502080F31188BFF34F8F91
:10223000BFF36F8FFEE700001C0000205C01002050
:102240001CB5264908780190FF20087008788DF8A1
:1022500000009DF800009DF8002000F0F000904282
:1022600007D0502080F31188BFF34F8FBFF36F8FDB
:10227000FEE79DF800001A4B00F050001870072090
:10228000986005E09DF8002052008DF80020401E67
:102290009DF800201206F5D49860032807D050203E
:1022A00080F31188BFF34F8FBFF36F8FFEE74FF4BA
:1022B00040709860019808700A48016841F4700104
:1022C0000160016841F070410160FFF7EFFD0020FF
:1022D0005860FDF727FF00201CBD000000E400E06F
:1022E0008800002020ED00E010B50246002101200A
:1022F00000F005F80446FFF759FA204610BDF8B57E
:1023000017460E46050014D0DEB105FB06F050302E
:10231000FFF77EFC04000AD0002084F8460004F198
:1023200050023B46314628460094FFF74BFA2046C0
:10233000F8BD502080F31188BFF34F8FBFF36F8F2C
:10234000FEE70020E3E738B5049D18B153B1CAB1E8
:1023500081B120E0502080F31188BFF34F8FBFF38D
:102360006F8FFEE7502080F31188BFF34F8FBFF3CC
:102370006F8FFEE7502080F31188BFF34F8FBFF3BC
:102380006F8FFEE739B1502080F31188BFF34F8F74
:10239000BFF36F8FFEE750241C46012384F84630BC
:1023A0002B460094FFF70EFA204638BD70B50D4657
:1023B000040025D0FFF718FDD4E90F20216802FBA7
:1023C000001161600021A1632168A1600A46D4E97F
:1023D0000F01401E00FB0121E16021464FF0FF305C
:1023E00001F8440F487004F110008DB1FFF7CAFCEA
:1023F00004F12400FFF7C6FCFFF716FD012070BDB5
:10240000502080F31188BFF34F8FBFF36F8FFEE72B
:1024100021690029F0D000F0F9FB0028ECD0044934
:102420004FF080500860BFF34F8FBFF36F8FE3E72B
:1024300004ED00E02DE9FF4782B01D468A464FF0CB
:102440000008040003D0BAF1000F08D011E05020BA
:1024500080F31188BFF34F8FBFF36F8FFEE7206CBF
:1024600038B1502080F31188BFF34F8FBFF36F8FC7
:10247000FEE7022D0AD1E06B012807D0502080F33F
:102480001188BFF34F8FBFF36F8FFEE700F0CAFADA
:102490003F4F4FF000094FF0805648B9049838B1CB
:1024A000502080F31188BFF34F8FBFF36F8FFEE78B
:1024B000FFF79AFCA06BE16B884207D3022D05D091
:1024C0000498D0B1B8F1000F1AD01EE02A46514648
:1024D0002046FFF7C2F8616A19B104F1240000F048
:1024E00095FB20B13E60BFF34F8FBFF36F8FFFF7B7
:1024F0009BFC012006B0BDE8F087FFF795FC22E0C9
:102500006846FFF795FD4FF00108FFF78DFCFFF7D8
:102510005DFEFFF769FC94F94400401C01D184F88A
:10252000449094F94500401C01D184F84590FFF790
:102530007BFC04A9684600F0E3F930B12046FFF7C0
:1025400031FB00F09BFB0020D4E7FFF74DFCA06BB4
:10255000E16B884213D1FFF767FC04F11000049986
:10256000FFF774FD2046FFF71DFB00F087FB0028F6
:102570009ED13E60BFF34F8FBFF36F8F98E7FFF799
:1025800053FC2046FFF70EFB00F078FB90E70000BD
:1025900004ED00E02DE9F0471F469046894604000F
:1025A00003D0B9F1000F08D011E0502080F311885A
:1025B000BFF34F8FBFF36F8FFEE7206C38B1502011
:1025C00080F31188BFF34F8FBFF36F8FFEE7022FA9
:1025D0000AD1E06B012807D0502080F31188BFF3A7
:1025E0004F8FBFF36F8FFEE7FFF772FC5020EFF3C2
:1025F000118680F31188BFF34F8FBFF36F8FA06BED
:10260000E16B884206D3022F04D0002086F31188A4
:10261000BDE8F08794F945503A4649462046FFF711
:102620001CF8681C04D06D1C84F845500120EDE7AF
:10263000606A0028FAD004F1240000F0E7FA0028CC
:10264000F4D0B8F1000FF1D00121C8F80010EDE787
:102650002DE9F747002683B08A46040003D0BAF17B
:10266000000F08D011E0502080F31188BFF34F8F86
:10267000BFF36F8FFEE7206C38B1502080F31188D4
:10268000BFF34F8FBFF36F8FFEE700F0CBF9DFF89A
:10269000F4804FF000094FF0805748B9059838B1E1
:1026A000502080F31188BFF34F8FBFF36F8FFEE789
:1026B000FFF79AFBA56BC5B151462046FEF7BAFF5E
:1026C0006D1EA563206950B104F1100000F09EFA60
:1026D00028B1C8F80070BFF34F8FBFF36F8FFFF7BB
:1026E000A3FB012006B0BDE8F087059808B11EB134
:1026F00006E0FFF799FB27E06846FFF799FC012603
:10270000FFF792FBFFF762FDFFF76EFB94F94400C1
:10271000401C01D184F8449094F94500401C01D13B
:1027200084F84590FFF780FB05A9684600F0E8F8BB
:10273000002820460AD0FFF735FA00F09FFA20461D
:10274000FFF7E2F80028B3D00020CBE7FFF7DCF872
:1027500090B104F124000599FFF778FC2046FFF7BB
:1027600021FA00F08BFA0028A2D1C8F80070BFF35C
:102770004F8FBFF36F8F9BE72046FFF713FA00F0F0
:102780007DFA95E704ED00E02DE9F343002683B0E0
:102790000400354609D0206C78B1502080F31188B0
:1027A000BFF34F8FBFF36F8FFEE7502080F3118888
:1027B000BFF34F8FBFF36F8FFEE700F033F9DFF801
:1027C0003C814FF000094FF0805748B9049838B168
:1027D000502080F31188BFF34F8FBFF36F8FFEE758
:1027E000FFF702FBA06BC8B1401EA063206810B9C0
:1027F000FFF77EFA6060206950B104F1100000F02C
:1028000005FA28B1C8F80070BFF34F8FBFF36F8F80
:10281000FFF70AFB012005B0BDE8F083049808B17A
:1028200066B10FE03DB1502080F31188BFF34F8FA8
:10283000BFF36F8FFEE7FFF7F7FA5DE06846FFF73B
:10284000F7FB0126FFF7F0FAFFF7C0FCFFF7CCFA21
:1028500094F94400401C01D184F8449094F9450057
:10286000401C01D184F84590FFF7DEFA04A96846C0
:1028700000F046F80028204612D0FFF793F900F048
:10288000FDF92046FFF740F80028A9D09DB3FFF7D7
:10289000ABFA606A50B3206B0068C0F1380126E0E3
:1028A000FFF732F8E0B1206838B9FFF79DFA6068A9
:1028B00000F070F90546FFF7B7FA04F12400049917
:1028C000FFF7C4FB2046FFF76DF900F0D7F90028A9
:1028D00086D1C8F80070BFF34F8FBFF36F8F7FE7CB
:1028E0002046FFF75FF900F0C9F979E70021606839
:1028F000FFF7E0FB9FE7FFE700208CE704ED00E037
:102900002DE9F0410C46050011D0C4B1FFF76CFA77
:10291000174B5A696E682068911B471C17D02F68A7
:102920009B6A9F4219D0964217D8012410E050208C
:1029300080F31188BFF34F8FBFF36F8FFEE75020F6
:1029400080F31188BFF34F8FBFF36F8FFEE7002432
:10295000FFF76AFA2046BDE8F081884205D9401A9F
:1029600020602846FFF764FBF1E700202060DCE7E9
:102970001C0000202DE9FF5F8346DDE90E879946A4
:1029800016468A469000FFF743F905001CD05C20EC
:10299000FFF73EF9040014D00020256384F85900A5
:1029A000CDE90240CDE900874B46324651465846B4
:1029B000FEF719FF2046FEF7A9FD012004B0BDE88F
:1029C000F09F2846FFF744FA4FF0FF30F6E7F0B5E6
:1029D00085B0DDE90B640A9DA6B1DCB15C270097E8
:1029E0002663022684F85960002604AFCDE902462A
:1029F000CDE90057FEF7F7FE2046FEF787FD049865
:102A000005B0F0BD502080F31188BFF34F8FBFF3A6
:102A10006F8FFEE7502080F31188BFF34F8FBFF315
:102A20006F8FFEE70548C16919B1806B18B10020AE
:102A30007047012070470220704700001C000020F2
:102A400001484069704700001C0000202DE9F0415A
:102A50002E4C0027A06B40B1206A401C2062606AA7
:102A600000B101273846BDE8F0816669761C6661D1
:102A700013D16068006838B1502080F31188BFF32B
:102A80004F8FBFF36F8FFEE76068A1686160A06041
:102A9000A06A401CA062FFF705F8206BDFF8708089
:102AA000864209D36068006880B16068C068C56804
:102AB000686886420DD220632068C06A00EB8001FE
:102AC00058F821000128CAD90127C8E74FF0FF3084
:102AD000F1E7281DFFF72AF9A86A18B105F11800D7
:102AE000FFF724F9E86AA169884200D9A06100EBE8
:102AF000800108EB8100291DFFF76AF9E86A216867
:102B0000C96A8842CED30127CCE700001C00002010
:102B10005C01002070B504004FF0000133D01B4D64
:102B20002868844207D0502080F31188BFF34F8F6C
:102B3000BFF36F8FFEE7206D38B1401E2065E36C58
:102B4000E26A9A421FD040B11DE0502080F3118804
:102B5000BFF34F8FBFF36F8FFEE7201DFFF7E6F83F
:102B6000E06CE062C0F13800A061E06AA9698842C7
:102B700000D9A861064900EB800001EB8000211D0F
:102B8000FFF726F90121084670BD00001C00002057
:102B90005C01002070B504004FF000002BD0194DEF
:102BA000E16A2A68D26A914226D2A069002804DB31
:102BB0002868C06AC0F13800A061134E01EB8101A2
:102BC000606906EB8101884211D1201DFFF7AEF844
:102BD0002868C06AE062A969884200D9A86100EB50
:102BE000800006EB8000211DFFF7F2F802E0286864
:102BF000C06AE062012070BDE16C2A68D26A91422D
:102C0000F8D370BD1C0000205C01002070B5C068C6
:102C1000C46854B104F118000646FFF787F8144D54
:102C2000A86B50B13146134815E0502080F311884D
:102C3000BFF34F8FBFF36F8FFEE7201DFFF776F8CE
:102C4000E06AA969884200D9A8610B4900EB8000BD
:102C500001EB8000211DFFF7BBF8E06A2968C96A13
:102C6000884202D90120686270BD002070BD00005A
:102C70001C000020E40500205C0100202DE9F04745
:102C80002C4D00242746A86B38B1FFF7ADF8A86B90
:102C9000401EA863A86B40B146E0502080F3118825
:102CA000BFF34F8FBFF36F8FFEE72969224E0120DC
:102CB000D1B3A6F5916980463068E0B1F068C46888
:102CC00004F11800FFF732F8201DFFF72FF8E06A33
:102CD000A969884200D9A86100EB800109EB810055
:102CE000211DFFF775F8E06A2968C96A8842E3D3B5
:102CF000C5F82480E0E70CB1FEF7D4FE2C6A4CB195
:102D00004FEA0806FFF7A2FE00B16E62641EF9D119
:102D100000202862686A38B108490127380708602E
:102D2000BFF34F8FBFF36F8FFFF77EF83846BDE8D4
:102D3000F08700001C000020E405002004ED00E006
:102D400010B586B0FEF74AFC114CA068B8B100205F
:102D50000390049005AA04A903A8FFF705F8DDE98C
:102D6000032102208DE8070000230AA10B48059AE1
:102D7000FFF72DFEE06010B106B0012010BD50201D
:102D800080F31188BFF34F8FBFF36F8FFEE7000012
:102D900058000020546D722053766300811B000898
:102DA0002DE9FF411E46134602000A9D4FF0000028
:102DB00016D0144CA768002F0FD0CDE90013029253
:102DC000062917DAFFF72EFE02284FF000030FD076
:102DD00000226946A068FFF72DFB04B0BDE8F08132
:102DE000502080F31188BFF34F8FBFF36F8FFEE742
:102DF0002A46EEE70023324669463846FFF7CAFB0B
:102E0000EBE7000058000020442E000800000000FE
:102E100000000000000000000000000000020000B0
:102E2000180000000000000000000000000000008A
:102E3000000000000102030406070809000000006A
:102E400001020304785461736B3100006C2E00089A
:102E5000000000209400000044120008002F000829
:102E6000940000205C1D00005412000800000000C7
:102E70000000000000000000010000001000000041
:102E8000000000000024F40000000000000000002A
:102E90000000000000000000000000000000000032
:102EA0000000000000000000000000000000000022
:102EB0000000000000000000000000000000000012
:102EC0000000000000000000000000000000000002
:102ED00000000000000000000000000000000000F2
:102EE00000000000000000000000000000000000E2
:102EF0000000000000000000AAAAAAAA000000002A
:04000005080000ED02
:00000001FF
